{
  "address": "0xe4c1fEC9e27c6d4EA0CC33D3a8C3a8E8770E1BA6",
  "abi": [
    {
      "anonymous": false,
      "inputs": [
        {
          "indexed": false,
          "internalType": "address",
          "name": "contractAddress",
          "type": "address"
        }
      ],
      "name": "CommerceContractDeployed",
      "type": "event"
    },
    {
      "inputs": [
        {
          "internalType": "uint256",
          "name": "",
          "type": "uint256"
        }
      ],
      "name": "commerceContracts",
      "outputs": [
        {
          "internalType": "contract CommerceContract",
          "name": "",
          "type": "address"
        }
      ],
      "stateMutability": "view",
      "type": "function"
    },
    {
      "inputs": [
        {
          "internalType": "string",
          "name": "_title",
          "type": "string"
        },
        {
          "internalType": "string",
          "name": "_description",
          "type": "string"
        },
        {
          "internalType": "string",
          "name": "_photoURL",
          "type": "string"
        },
        {
          "internalType": "string",
          "name": "_originsLocation",
          "type": "string"
        },
        {
          "internalType": "string",
          "name": "_shippingMethod",
          "type": "string"
        },
        {
          "internalType": "string",
          "name": "_upcharges",
          "type": "string"
        },
        {
          "internalType": "string",
          "name": "_sellerName",
          "type": "string"
        },
        {
          "internalType": "uint256",
          "name": "_quantity",
          "type": "uint256"
        },
        {
          "internalType": "uint256",
          "name": "_validityTime",
          "type": "uint256"
        },
        {
          "internalType": "uint256",
          "name": "_productPrice",
          "type": "uint256"
        }
      ],
      "name": "createCommerceContract",
      "outputs": [],
      "stateMutability": "nonpayable",
      "type": "function"
    },
    {
      "inputs": [
        {
          "internalType": "uint256",
          "name": "index",
          "type": "uint256"
        }
      ],
      "name": "getCommerceContractAddress",
      "outputs": [
        {
          "internalType": "address",
          "name": "",
          "type": "address"
        }
      ],
      "stateMutability": "view",
      "type": "function"
    },
    {
      "inputs": [],
      "name": "getCommerceContracts",
      "outputs": [
        {
          "internalType": "contract CommerceContract[]",
          "name": "",
          "type": "address[]"
        }
      ],
      "stateMutability": "view",
      "type": "function"
    }
  ],
  "transactionHash": "0x0bc31f2bfd6cde566f5097c1f7ebe7c4d8989d8bd4ce851a7bfe191993ac58b5",
  "args": [],
  "numDeployments": 1,
  "solcInputHash": "607a412bd96d0dab5fe1cff035a7ad77",
  "bytecode": "0x608060405234801561001057600080fd5b50613056806100206000396000f3fe60806040523480156200001157600080fd5b5060043610620000525760003560e01c8063151fb2ba1462000057578063243c3ee7146200008657806363f28ed7146200009f578063c4844f8214620000b6575b600080fd5b6200006e6200006836600462000489565b620000cf565b6040516200007d9190620004f0565b60405180910390f35b6200009d6200009736600462000341565b6200013a565b005b6200006e620000b036600462000489565b6200021b565b620000c062000246565b6040516200007d919062000504565b600080548210620000fd5760405162461bcd60e51b8152600401620000f4906200061b565b60405180910390fd5b600082815481106200011f57634e487b7160e01b600052603260045260246000fd5b6000918252602090912001546001600160a01b031692915050565b60008a8a8a8a8a8a8a8a8a8a426040516200015590620002aa565b6200016b9b9a9998979695949392919062000553565b604051809103906000f08015801562000188573d6000803e3d6000fd5b50600080546001810182559080527f290decd9548b62a8d60345a988386fc84ba6bc95484008f6362f93160ef3e5630180546001600160a01b0319166001600160a01b0383161790556040519091507fcc062499904662f134095598a84799954898fd4379e59102648d459b0949f04b9062000206908390620004f0565b60405180910390a15050505050505050505050565b600081815481106200022c57600080fd5b6000918252602090912001546001600160a01b0316905081565b60606000805480602002602001604051908101604052809291908181526020018280548015620002a057602002820191906000526020600020905b81546001600160a01b0316815260019091019060200180831162000281575b5050505050905090565b6129c2806200065f83390190565b600082601f830112620002c9578081fd5b813567ffffffffffffffff80821115620002e757620002e762000648565b604051601f8301601f1916810160200182811182821017156200030e576200030e62000648565b60405282815284830160200186101562000326578384fd5b82602086016020830137918201602001929092529392505050565b6000806000806000806000806000806101408b8d03121562000361578586fd5b8a3567ffffffffffffffff8082111562000379578788fd5b620003878e838f01620002b8565b9b5060208d01359150808211156200039d578788fd5b620003ab8e838f01620002b8565b9a5060408d0135915080821115620003c1578788fd5b620003cf8e838f01620002b8565b995060608d0135915080821115620003e5578788fd5b620003f38e838f01620002b8565b985060808d013591508082111562000409578788fd5b620004178e838f01620002b8565b975060a08d01359150808211156200042d578687fd5b6200043b8e838f01620002b8565b965060c08d013591508082111562000451578586fd5b50620004608d828e01620002b8565b94505060e08b013592506101008b013591506101208b013590509295989b9194979a5092959850565b6000602082840312156200049b578081fd5b5035919050565b60008151808452815b81811015620004c957602081850181015186830182015201620004ab565b81811115620004db5782602083870101525b50601f01601f19169290920160200192915050565b6001600160a01b0391909116815260200190565b6020808252825182820181905260009190848201906040850190845b81811015620005475783516001600160a01b03168352928401929184019160010162000520565b50909695505050505050565b6000610160808352620005698184018f620004a2565b905082810360208401526200057f818e620004a2565b9050828103604084015262000595818d620004a2565b90508281036060840152620005ab818c620004a2565b90508281036080840152620005c1818b620004a2565b905082810360a0840152620005d7818a620004a2565b905082810360c0840152620005ed8189620004a2565b9150508560e08301528461010083015283610120830152826101408301529c9b505050505050505050505050565b602080825260139082015272496e646578206f7574206f6620626f756e647360681b604082015260600190565b634e487b7160e01b600052604160045260246000fdfe60806040523480156200001157600080fd5b50604051620029c2380380620029c283398101604081905262000034916200035b565b33600a60006101000a8154816001600160a01b0302191690836001600160a01b031602179055506040518061014001604052808c81526020018b81526020018a815260200189815260200188815260200187815260200186815260200185815260200184815260200160001515815250600080820151816000019080519060200190620000c39291906200020a565b506020828101518051620000de92600185019201906200020a565b5060408201518051620000fc9160028401916020909101906200020a565b50606082015180516200011a9160038401916020909101906200020a565b5060808201518051620001389160048401916020909101906200020a565b5060a08201518051620001569160058401916020909101906200020a565b5060c08201518051620001749160068401916020909101906200020a565b5060e082015160078201556101008201516008820155610120909101516009909101805460ff1916911515919091179055600e829055600f819055600a546040517f6066915a7d1edadb403bd27d8ea183ee708dfbf8236eb978496a0224e14c2df191620001f1916001600160a01b03909116906000906200058e565b60405180910390a150505050505050505050506200070e565b8280546200021890620006b5565b90600052602060002090601f0160209004810192826200023c576000855562000287565b82601f106200025757805160ff191683800117855562000287565b8280016001018555821562000287579182015b82811115620002875782518255916020019190600101906200026a565b506200029592915062000299565b5090565b5b808211156200029557600081556001016200029a565b600082601f830112620002c1578081fd5b81516001600160401b0380821115620002de57620002de620006f8565b6040516020601f8401601f1916820181018381118382101715620003065762000306620006f8565b60405283825285840181018710156200031d578485fd5b8492505b8383101562000340578583018101518284018201529182019162000321565b838311156200035157848185840101525b5095945050505050565b60008060008060008060008060008060006101608c8e0312156200037d578687fd5b8b516001600160401b0381111562000393578788fd5b620003a18e828f01620002b0565b60208e0151909c5090506001600160401b03811115620003bf578788fd5b620003cd8e828f01620002b0565b60408e0151909b5090506001600160401b03811115620003eb578788fd5b620003f98e828f01620002b0565b60608e0151909a5090506001600160401b0381111562000417578788fd5b620004258e828f01620002b0565b60808e015190995090506001600160401b0381111562000443578788fd5b620004518e828f01620002b0565b60a08e015190985090506001600160401b038111156200046f578687fd5b6200047d8e828f01620002b0565b60c08e015190975090506001600160401b038111156200049b578586fd5b620004a98e828f01620002b0565b95505060e08c015193506101008c015192506101208c015191506101408c015190509295989b509295989b9093969950565b15159052565b805460009060028104600180831680620004fc57607f831692505b60208084108214156200051d57634e487b7160e01b86526022600452602486fd5b620005298489620006ac565b828015620005405760018114620005525762000581565b60ff1987168252828201975062000581565b6200055d89620006a0565b60005b878110156200057b5781548482015290860190840162000560565b83019850505b5050505050505092915050565b600060018060a01b038416825260406020830152610140806040840152620005bb610180840185620004e1565b603f1980858303016060860152620005d78260018801620004e1565b915080858303016080860152620005f28260028801620004e1565b9150808583030160a08601526200060d8260038801620004e1565b9150808583030160c0860152620006288260048801620004e1565b9150808583030160e0860152620006438260058801620004e1565b9150808583030161010086015250620006608160068701620004e1565b90506007850154610120850152600885015482850152620006856009860154620006f2565b915062000697610160850183620004db565b95945050505050565b60009081526020902090565b90815260200190565b600281046001821680620006ca57607f821691505b60208210811415620006ec57634e487b7160e01b600052602260045260246000fd5b50919050565b60ff1690565b634e487b7160e01b600052604160045260246000fd5b6122a4806200071e6000396000f3fe6080604052600436106100a75760003560e01c80637cc1f867116100645780637cc1f867146101705780638dbb8c1c146101945780639497d3ae146101a9578063bf9ce952146101be578063f2aa8218146101e9578063f40e847114610209576100a7565b806308551a53146100ac5780631d834409146100d757806320467b37146100f95780633ccfd60b1461011b5780635a8cf8ff146101305780636eba2b1314610143575b600080fd5b3480156100b857600080fd5b506100c161023f565b6040516100ce9190611b8a565b60405180910390f35b3480156100e357600080fd5b506100ec61024e565b6040516100ce9190612177565b34801561010557600080fd5b50610119610114366004611953565b610254565b005b34801561012757600080fd5b50610119610353565b61011961013e36600461199f565b610478565b34801561014f57600080fd5b5061016361015e366004611939565b610726565b6040516100ce9190611f6c565b34801561017c57600080fd5b50610185610afd565b6040516100ce9392919061205a565b3480156101a057600080fd5b506100ec610f5d565b3480156101b557600080fd5b506100ec610f63565b3480156101ca57600080fd5b506101d3610f69565b6040516100ce9a99989796959493929190611d4a565b3480156101f557600080fd5b506100c1610204366004611a73565b611366565b34801561021557600080fd5b50610229610224366004611939565b611390565b6040516100ce9a99989796959493929190611b9e565b600a546001600160a01b031681565b600d5481565b600a546001600160a01b031633146102875760405162461bcd60e51b815260040161027e90611ea3565b60405180910390fd5b6001600160a01b038281166000908152600b6020526040902054166102be5760405162461bcd60e51b815260040161027e90611f3e565b6001600160a01b0382166000908152600b6020908152604090912060088101805460ff1916600117905582516102fc92600990920191840190611755565b506001600160a01b0382166000908152600b60205260409081902090517f686aa43c80d44e65dc44e1f4cbe0c06ce0c316026c57b42505fc3241933084649161034791859190611c4e565b60405180910390a15050565b600a546001600160a01b0316331461037d5760405162461bcd60e51b815260040161027e90611ea3565b6000600d541161039f5760405162461bcd60e51b815260040161027e90611e79565b600160005b600c5481101561041d57600b6000600c83815481106103d357634e487b7160e01b600052603260045260246000fd5b60009182526020808320909101546001600160a01b0316835282019290925260400190206008015460ff1661040b576000915061041d565b8061041581612227565b9150506103a4565b508061043b5760405162461bcd60e51b815260040161027e90611e2b565b600a546040516001600160a01b03909116904780156108fc02916000818181858888f19350505050158015610474573d6000803e3d6000fd5b5050565b336000908152600b60205260409020546001600160a01b0316156104ae5760405162461bcd60e51b815260040161027e90611dfd565b6000831180156104c057506007548311155b6104dc5760405162461bcd60e51b815260040161027e90611ee6565b60006104e8848361171f565b90508034101561050a5760405162461bcd60e51b815260040161027e90611f10565b60408051610140810182523380825260208083018b81528385018b9052606084018a90526080840189905260a0840188905260c0840187905260e084018690526000610100850181905285518084018752818152610120860152928352600b825293909120825181546001600160a01b0319166001600160a01b03909116178155925180519293926105a29260018501920190611755565b50604082015180516105be916002840191602090910190611755565b50606082015180516105da916003840191602090910190611755565b506080820151600482015560a08201518051610600916005840191602090910190611755565b5060c0820151805161061c916006840191602090910190611755565b5060e0820151600782015561010082015160088201805460ff1916911515919091179055610120820151805161065c916009840191602090910190611755565b5050600c80546001818101835560009283527fdf6966c971051c3d54ec59162606531493a51404a002842f56009d7e5cf4a8c790910180546001600160a01b03191633179055600d805491935091906106b690849061218c565b9091555050600780548591906000906106d09084906121c3565b9091555050336000818152600b60205260409081902090517f18982cd8cf9dd0cce97a507e43636445ba7fd3adc0203b3fb51bef96a8995f0b92610715929091611c4e565b60405180910390a150505050505050565b61072e6117d9565b6001600160a01b038083166000908152600b6020908152604091829020825161014081019093528054909316825260018301805492939291840191610772906121e6565b80601f016020809104026020016040519081016040528092919081815260200182805461079e906121e6565b80156107eb5780601f106107c0576101008083540402835291602001916107eb565b820191906000526020600020905b8154815290600101906020018083116107ce57829003601f168201915b50505050508152602001600282018054610804906121e6565b80601f0160208091040260200160405190810160405280929190818152602001828054610830906121e6565b801561087d5780601f106108525761010080835404028352916020019161087d565b820191906000526020600020905b81548152906001019060200180831161086057829003601f168201915b50505050508152602001600382018054610896906121e6565b80601f01602080910402602001604051908101604052809291908181526020018280546108c2906121e6565b801561090f5780601f106108e45761010080835404028352916020019161090f565b820191906000526020600020905b8154815290600101906020018083116108f257829003601f168201915b5050505050815260200160048201548152602001600582018054610932906121e6565b80601f016020809104026020016040519081016040528092919081815260200182805461095e906121e6565b80156109ab5780601f10610980576101008083540402835291602001916109ab565b820191906000526020600020905b81548152906001019060200180831161098e57829003601f168201915b505050505081526020016006820180546109c4906121e6565b80601f01602080910402602001604051908101604052809291908181526020018280546109f0906121e6565b8015610a3d5780601f10610a1257610100808354040283529160200191610a3d565b820191906000526020600020905b815481529060010190602001808311610a2057829003601f168201915b505050918352505060078201546020820152600882015460ff1615156040820152600982018054606090920191610a73906121e6565b80601f0160208091040260200160405190810160405280929190818152602001828054610a9f906121e6565b8015610aec5780601f10610ac157610100808354040283529160200191610aec565b820191906000526020600020905b815481529060010190602001808311610acf57829003601f168201915b50505050508152505090505b919050565b610b05611837565b6000806000600a60009054906101000a90046001600160a01b0316600f548260405180610140016040529081600082018054610b40906121e6565b80601f0160208091040260200160405190810160405280929190818152602001828054610b6c906121e6565b8015610bb95780601f10610b8e57610100808354040283529160200191610bb9565b820191906000526020600020905b815481529060010190602001808311610b9c57829003601f168201915b50505050508152602001600182018054610bd2906121e6565b80601f0160208091040260200160405190810160405280929190818152602001828054610bfe906121e6565b8015610c4b5780601f10610c2057610100808354040283529160200191610c4b565b820191906000526020600020905b815481529060010190602001808311610c2e57829003601f168201915b50505050508152602001600282018054610c64906121e6565b80601f0160208091040260200160405190810160405280929190818152602001828054610c90906121e6565b8015610cdd5780601f10610cb257610100808354040283529160200191610cdd565b820191906000526020600020905b815481529060010190602001808311610cc057829003601f168201915b50505050508152602001600382018054610cf6906121e6565b80601f0160208091040260200160405190810160405280929190818152602001828054610d22906121e6565b8015610d6f5780601f10610d4457610100808354040283529160200191610d6f565b820191906000526020600020905b815481529060010190602001808311610d5257829003601f168201915b50505050508152602001600482018054610d88906121e6565b80601f0160208091040260200160405190810160405280929190818152602001828054610db4906121e6565b8015610e015780601f10610dd657610100808354040283529160200191610e01565b820191906000526020600020905b815481529060010190602001808311610de457829003601f168201915b50505050508152602001600582018054610e1a906121e6565b80601f0160208091040260200160405190810160405280929190818152602001828054610e46906121e6565b8015610e935780601f10610e6857610100808354040283529160200191610e93565b820191906000526020600020905b815481529060010190602001808311610e7657829003601f168201915b50505050508152602001600682018054610eac906121e6565b80601f0160208091040260200160405190810160405280929190818152602001828054610ed8906121e6565b8015610f255780601f10610efa57610100808354040283529160200191610f25565b820191906000526020600020905b815481529060010190602001808311610f0857829003601f168201915b5050509183525050600782015460208201526008820154604082015260099091015460ff161515606090910152969195509350915050565b600f5481565b600e5481565b600080548190610f78906121e6565b80601f0160208091040260200160405190810160405280929190818152602001828054610fa4906121e6565b8015610ff15780601f10610fc657610100808354040283529160200191610ff1565b820191906000526020600020905b815481529060010190602001808311610fd457829003601f168201915b505050505090806001018054611006906121e6565b80601f0160208091040260200160405190810160405280929190818152602001828054611032906121e6565b801561107f5780601f106110545761010080835404028352916020019161107f565b820191906000526020600020905b81548152906001019060200180831161106257829003601f168201915b505050505090806002018054611094906121e6565b80601f01602080910402602001604051908101604052809291908181526020018280546110c0906121e6565b801561110d5780601f106110e25761010080835404028352916020019161110d565b820191906000526020600020905b8154815290600101906020018083116110f057829003601f168201915b505050505090806003018054611122906121e6565b80601f016020809104026020016040519081016040528092919081815260200182805461114e906121e6565b801561119b5780601f106111705761010080835404028352916020019161119b565b820191906000526020600020905b81548152906001019060200180831161117e57829003601f168201915b5050505050908060040180546111b0906121e6565b80601f01602080910402602001604051908101604052809291908181526020018280546111dc906121e6565b80156112295780601f106111fe57610100808354040283529160200191611229565b820191906000526020600020905b81548152906001019060200180831161120c57829003601f168201915b50505050509080600501805461123e906121e6565b80601f016020809104026020016040519081016040528092919081815260200182805461126a906121e6565b80156112b75780601f1061128c576101008083540402835291602001916112b7565b820191906000526020600020905b81548152906001019060200180831161129a57829003601f168201915b5050505050908060060180546112cc906121e6565b80601f01602080910402602001604051908101604052809291908181526020018280546112f8906121e6565b80156113455780601f1061131a57610100808354040283529160200191611345565b820191906000526020600020905b81548152906001019060200180831161132857829003601f168201915b50505050600783015460088401546009909401549293909290915060ff168a565b600c818154811061137657600080fd5b6000918252602090912001546001600160a01b0316905081565b600b60205260009081526040902080546001820180546001600160a01b0390921692916113bc906121e6565b80601f01602080910402602001604051908101604052809291908181526020018280546113e8906121e6565b80156114355780601f1061140a57610100808354040283529160200191611435565b820191906000526020600020905b81548152906001019060200180831161141857829003601f168201915b50505050509080600201805461144a906121e6565b80601f0160208091040260200160405190810160405280929190818152602001828054611476906121e6565b80156114c35780601f10611498576101008083540402835291602001916114c3565b820191906000526020600020905b8154815290600101906020018083116114a657829003601f168201915b5050505050908060030180546114d8906121e6565b80601f0160208091040260200160405190810160405280929190818152602001828054611504906121e6565b80156115515780601f1061152657610100808354040283529160200191611551565b820191906000526020600020905b81548152906001019060200180831161153457829003601f168201915b50505050509080600401549080600501805461156c906121e6565b80601f0160208091040260200160405190810160405280929190818152602001828054611598906121e6565b80156115e55780601f106115ba576101008083540402835291602001916115e5565b820191906000526020600020905b8154815290600101906020018083116115c857829003601f168201915b5050505050908060060180546115fa906121e6565b80601f0160208091040260200160405190810160405280929190818152602001828054611626906121e6565b80156116735780601f1061164857610100808354040283529160200191611673565b820191906000526020600020905b81548152906001019060200180831161165657829003601f168201915b50505050600783015460088401546009850180549495929460ff90921693509061169c906121e6565b80601f01602080910402602001604051908101604052809291908181526020018280546116c8906121e6565b80156117155780601f106116ea57610100808354040283529160200191611715565b820191906000526020600020905b8154815290600101906020018083116116f857829003601f168201915b505050505090508a565b600080600e548461173091906121a4565b83519091501561174e5761174b662386f26fc100008261218c565b90505b9392505050565b828054611761906121e6565b90600052602060002090601f01602090048101928261178357600085556117c9565b82601f1061179c57805160ff19168380011785556117c9565b828001600101855582156117c9579182015b828111156117c95782518255916020019190600101906117ae565b506117d592915061188c565b5090565b60405180610140016040528060006001600160a01b0316815260200160608152602001606081526020016060815260200160008152602001606081526020016060815260200160008152602001600015158152602001606081525090565b6040518061014001604052806060815260200160608152602001606081526020016060815260200160608152602001606081526020016060815260200160008152602001600081526020016000151581525090565b5b808211156117d5576000815560010161188d565b80356001600160a01b0381168114610af857600080fd5b600082601f8301126118c8578081fd5b813567ffffffffffffffff808211156118e3576118e3612258565b604051601f8301601f19168101602001828111828210171561190757611907612258565b60405282815284830160200186101561191e578384fd5b82602086016020830137918201602001929092529392505050565b60006020828403121561194a578081fd5b61174e826118a1565b60008060408385031215611965578081fd5b61196e836118a1565b9150602083013567ffffffffffffffff811115611989578182fd5b611995858286016118b8565b9150509250929050565b60008060008060008060c087890312156119b7578182fd5b863567ffffffffffffffff808211156119ce578384fd5b6119da8a838b016118b8565b975060208901359150808211156119ef578384fd5b6119fb8a838b016118b8565b96506040890135915080821115611a10578384fd5b611a1c8a838b016118b8565b9550606089013594506080890135915080821115611a38578384fd5b611a448a838b016118b8565b935060a0890135915080821115611a59578283fd5b50611a6689828a016118b8565b9150509295509295509295565b600060208284031215611a84578081fd5b5035919050565b6001600160a01b03169052565b15159052565b60008151808452815b81811015611ac357602081850181015186830182015201611aa7565b81811115611ad45782602083870101525b50601f01601f19169290920160200192915050565b805460009060028104600180831680611b0357607f831692505b6020808410821415611b2357634e487b7160e01b86526022600452602486fd5b611b2d8489612177565b828015611b415760018114611b5257611b7d565b60ff19871682528282019750611b7d565b611b5b89612180565b60005b87811015611b7757815484820152908601908401611b5e565b83019850505b5050505050505092915050565b6001600160a01b0391909116815260200190565b6001600160a01b038b16815261014060208201819052600090611bc38382018d611a9e565b90508281036040840152611bd7818c611a9e565b90508281036060840152611beb818b611a9e565b905088608084015282810360a0840152611c058189611a9e565b905082810360c0840152611c198188611a9e565b90508560e0840152841515610100840152828103610120840152611c3d8185611a9e565b9d9c50505050505050505050505050565b600060018060a01b038416825260406020830152611c7860408301611c7385546121da565b611a8b565b610140806060840152611c92610180840160018601611ae9565b603f1980858303016080860152611cac8260028801611ae9565b9150808583030160a0860152611cc58260038801611ae9565b9150600486015460c0860152808583030160e0860152611ce88260058801611ae9565b91508085830301610100860152611d028260068801611ae9565b91506007860154610120860152611d1c6008870154612221565b611d2884870182611a98565b5084820301610160850152611d408160098701611ae9565b9695505050505050565b6000610140808352611d5e8184018e611a9e565b90508281036020840152611d72818d611a9e565b90508281036040840152611d86818c611a9e565b90508281036060840152611d9a818b611a9e565b90508281036080840152611dae818a611a9e565b905082810360a0840152611dc28189611a9e565b905082810360c0840152611dd68188611a9e565b60e08401969096525050610100810192909252151561012090910152979650505050505050565b60208082526014908201527313dc99195c88185b1c9958591e481c1b1858d95960621b604082015260600190565b6020808252602e908201527f416c6c206f7264657273206d75737420626520636f6d706c657465642062656660408201526d1bdc99481dda5d1a191c985dd85b60921b606082015260800190565b60208082526010908201526f139bc81bdc99195c9cc81c1b1858d95960821b604082015260600190565b60208082526023908201527f4f6e6c792073656c6c65722063616e20706572666f726d20746869732061637460408201526234b7b760e91b606082015260800190565b60208082526010908201526f496e76616c6964207175616e7469747960801b604082015260600190565b602080825260149082015273125b9cdd59999a58da595b9d081c185e5b595b9d60621b604082015260600190565b60208082526014908201527313dc99195c88191bd95cc81b9bdd08195e1a5cdd60621b604082015260600190565b600060208252611f80602083018451611a8b565b6020830151610140806040850152611f9c610160850183611a9e565b91506040850151601f1980868503016060870152611fba8483611a9e565b93506060870151915080868503016080870152611fd78483611a9e565b9350608087015160a087015260a08701519150808685030160c0870152611ffe8483611a9e565b935060c08701519150808685030160e087015261201b8483611a9e565b60e088015161010088810191909152880151909450915061012061204181880184611a98565b870151868503909101838701529050611d408382611a9e565b60006060825284516101408060608501526120796101a0850183611a9e565b91506020870151605f19808685030160808701526120978483611a9e565b935060408901519150808685030160a08701526120b48483611a9e565b935060608901519150808685030160c08701526120d18483611a9e565b935060808901519150808685030160e08701526120ee8483611a9e565b935060a0890151915061010081878603018188015261210d8584611a9e565b945060c08a0151925061012082888703018189015261212c8685611a9e565b955060e08b015185890152818b0151610160890152808b0151945050505050612159610180850182611a98565b5090506121696020830185611a8b565b826040830152949350505050565b90815260200190565b60009081526020902090565b6000821982111561219f5761219f612242565b500190565b60008160001904831182151516156121be576121be612242565b500290565b6000828210156121d5576121d5612242565b500390565b6001600160a01b031690565b6002810460018216806121fa57607f821691505b6020821081141561221b57634e487b7160e01b600052602260045260246000fd5b50919050565b60ff1690565b600060001982141561223b5761223b612242565b5060010190565b634e487b7160e01b600052601160045260246000fd5b634e487b7160e01b600052604160045260246000fdfea26469706673582212201dfe0c40718ff35d1737acd1db56c02fd80ddc957348cfbc6f03f064de8c440a64736f6c63430008000033a264697066735822122008af4ebd61c0d36384d0d0815f6d9f337907ecfc39a04e183fcb76efab298a1364736f6c63430008000033",
  "devdoc": {
    "kind": "dev",
    "methods": {},
    "version": 1
  },
  "userdoc": {
    "kind": "user",
    "methods": {},
    "version": 1
  },
  "storageLayout": {
    "storage": [
      {
        "astId": 435,
        "contract": "contracts/CommerceFactory.sol:CommerceFactory",
        "label": "commerceContracts",
        "offset": 0,
        "slot": "0",
        "type": "t_array(t_contract(CommerceContract)428)dyn_storage"
      }
    ],
    "types": {
      "t_array(t_contract(CommerceContract)428)dyn_storage": {
        "base": "t_contract(CommerceContract)428",
        "encoding": "dynamic_array",
        "label": "contract CommerceContract[]",
        "numberOfBytes": "32"
      },
      "t_contract(CommerceContract)428": {
        "encoding": "inplace",
        "label": "contract CommerceContract",
        "numberOfBytes": "20"
      }
    }
  }
}