{
  "address": "0xb25f0FDF98B88E5468018d2b4591fE46ECfA528A",
  "abi": [
    {
      "anonymous": false,
      "inputs": [
        {
          "indexed": false,
          "internalType": "address",
          "name": "contractAddress",
          "type": "address"
        },
        {
          "indexed": false,
          "internalType": "string",
          "name": "title",
          "type": "string"
        },
        {
          "indexed": false,
          "internalType": "string",
          "name": "description",
          "type": "string"
        },
        {
          "indexed": false,
          "internalType": "uint256",
          "name": "timestamp",
          "type": "uint256"
        }
      ],
      "name": "ContractDeployed",
      "type": "event"
    },
    {
      "inputs": [
        {
          "internalType": "string",
          "name": "_title",
          "type": "string"
        },
        {
          "internalType": "string",
          "name": "_description",
          "type": "string"
        },
        {
          "internalType": "string",
          "name": "_photoURL",
          "type": "string"
        },
        {
          "internalType": "string",
          "name": "_originsLocation",
          "type": "string"
        },
        {
          "internalType": "string",
          "name": "_shippingMethod",
          "type": "string"
        },
        {
          "internalType": "string",
          "name": "_upcharges",
          "type": "string"
        },
        {
          "internalType": "string",
          "name": "_sellerName",
          "type": "string"
        },
        {
          "internalType": "uint256",
          "name": "_quantity",
          "type": "uint256"
        },
        {
          "internalType": "uint256",
          "name": "_validityTime",
          "type": "uint256"
        },
        {
          "internalType": "uint256",
          "name": "_productPrice",
          "type": "uint256"
        }
      ],
      "name": "createCommerceContract",
      "outputs": [],
      "stateMutability": "nonpayable",
      "type": "function"
    },
    {
      "inputs": [
        {
          "internalType": "uint256",
          "name": "",
          "type": "uint256"
        }
      ],
      "name": "deployedContracts",
      "outputs": [
        {
          "internalType": "address",
          "name": "contractAddress",
          "type": "address"
        },
        {
          "internalType": "string",
          "name": "title",
          "type": "string"
        },
        {
          "internalType": "string",
          "name": "description",
          "type": "string"
        },
        {
          "internalType": "uint256",
          "name": "timestamp",
          "type": "uint256"
        }
      ],
      "stateMutability": "view",
      "type": "function"
    },
    {
      "inputs": [],
      "name": "getDeployedContracts",
      "outputs": [
        {
          "components": [
            {
              "internalType": "address",
              "name": "contractAddress",
              "type": "address"
            },
            {
              "internalType": "string",
              "name": "title",
              "type": "string"
            },
            {
              "internalType": "string",
              "name": "description",
              "type": "string"
            },
            {
              "internalType": "uint256",
              "name": "timestamp",
              "type": "uint256"
            }
          ],
          "internalType": "struct CommerceFactory.ContractInfo[]",
          "name": "",
          "type": "tuple[]"
        }
      ],
      "stateMutability": "view",
      "type": "function"
    }
  ],
  "transactionHash": "0xb88385f732ecef5b5ebef5636f163d783eb34e27dee23d93eb32efe7d5c372d4",
  "args": [],
  "numDeployments": 2,
  "solcInputHash": "4cdef3a8e78dc33572202d4c0ee3ba40",
  "bytecode": "0x6080604052348015600f57600080fd5b506133b08061001f6000396000f3fe608060405234801561001057600080fd5b50600436106100415760003560e01c8063243c3ee7146100465780639ad1ee101461005b578063aa9a068f14610087575b600080fd5b6100596100543660046105a8565b61009c565b005b61006e61006936600461070d565b6101fd565b60405161007e949392919061076c565b60405180910390f35b61008f610353565b60405161007e91906107b4565b60008a8a8a8a8a8a8a8a8a8a426040516100b5906104f6565b6100c99b9a99989796959493929190610860565b604051809103906000f0801580156100e5573d6000803e3d6000fd5b50604080516080810182526001600160a01b038381168252602082018f81529282018e90524260608301526000805460018101825590805282517f290decd9548b62a8d60345a988386fc84ba6bc95484008f6362f93160ef3e563600490920291820180546001600160a01b031916919093161782559251939450909290917f290decd9548b62a8d60345a988386fc84ba6bc95484008f6362f93160ef3e564019061019190826109a2565b50604082015160028201906101a690826109a2565b506060820151816003015550507f85faf38788c035a452cb6bf506a8a42c038e972ea3a5a3b4b1dde42af9eb1650818c8c426040516101e8949392919061076c565b60405180910390a15050505050505050505050565b6000818154811061020d57600080fd5b6000918252602090912060049091020180546001820180546001600160a01b0390921693509061023c90610919565b80601f016020809104026020016040519081016040528092919081815260200182805461026890610919565b80156102b55780601f1061028a576101008083540402835291602001916102b5565b820191906000526020600020905b81548152906001019060200180831161029857829003601f168201915b5050505050908060020180546102ca90610919565b80601f01602080910402602001604051908101604052809291908181526020018280546102f690610919565b80156103435780601f1061031857610100808354040283529160200191610343565b820191906000526020600020905b81548152906001019060200180831161032657829003601f168201915b5050505050908060030154905084565b60606000805480602002602001604051908101604052809291908181526020016000905b828210156104ed57600084815260209081902060408051608081019091526004850290910180546001600160a01b0316825260018101805492939192918401916103c090610919565b80601f01602080910402602001604051908101604052809291908181526020018280546103ec90610919565b80156104395780601f1061040e57610100808354040283529160200191610439565b820191906000526020600020905b81548152906001019060200180831161041c57829003601f168201915b5050505050815260200160028201805461045290610919565b80601f016020809104026020016040519081016040528092919081815260200182805461047e90610919565b80156104cb5780601f106104a0576101008083540402835291602001916104cb565b820191906000526020600020905b8154815290600101906020018083116104ae57829003601f168201915b5050505050815260200160038201548152505081526020019060010190610377565b50505050905090565b61291980610a6283390190565b634e487b7160e01b600052604160045260246000fd5b600082601f83011261052a57600080fd5b813567ffffffffffffffff81111561054457610544610503565b604051601f8201601f19908116603f0116810167ffffffffffffffff8111828210171561057357610573610503565b60405281815283820160200185101561058b57600080fd5b816020850160208301376000918101602001919091529392505050565b6000806000806000806000806000806101408b8d0312156105c857600080fd5b8a3567ffffffffffffffff8111156105df57600080fd5b6105eb8d828e01610519565b9a505060208b013567ffffffffffffffff81111561060857600080fd5b6106148d828e01610519565b99505060408b013567ffffffffffffffff81111561063157600080fd5b61063d8d828e01610519565b98505060608b013567ffffffffffffffff81111561065a57600080fd5b6106668d828e01610519565b97505060808b013567ffffffffffffffff81111561068357600080fd5b61068f8d828e01610519565b96505060a08b013567ffffffffffffffff8111156106ac57600080fd5b6106b88d828e01610519565b95505060c08b013567ffffffffffffffff8111156106d557600080fd5b6106e18d828e01610519565b9a9d999c50979a96999598949750949560e0810135955061010081013594610120909101359350915050565b60006020828403121561071f57600080fd5b5035919050565b6000815180845260005b8181101561074c57602081850181015186830182015201610730565b506000602082860101526020601f19601f83011685010191505092915050565b6001600160a01b038516815260806020820181905260009061079090830186610726565b82810360408401526107a28186610726565b91505082606083015295945050505050565b6000602082016020835280845180835260408501915060408160051b86010192506020860160005b8281101561085457868503603f19018452815180516001600160a01b0316865260208082015160809188018290529061081790880182610726565b9050604082015187820360408901526108308282610726565b606093840151989093019790975250945060209384019391909101906001016107dc565b50929695505050505050565b6101608152600061087561016083018e610726565b8281036020840152610887818e610726565b9050828103604084015261089b818d610726565b905082810360608401526108af818c610726565b905082810360808401526108c3818b610726565b905082810360a08401526108d7818a610726565b905082810360c08401526108eb8189610726565b9150508560e08301528461010083015283610120830152826101408301529c9b505050505050505050505050565b600181811c9082168061092d57607f821691505b60208210810361094d57634e487b7160e01b600052602260045260246000fd5b50919050565b601f82111561099d57806000526020600020601f840160051c8101602085101561097a5750805b601f840160051c820191505b8181101561099a5760008155600101610986565b50505b505050565b815167ffffffffffffffff8111156109bc576109bc610503565b6109d0816109ca8454610919565b84610953565b6020601f821160018114610a0457600083156109ec5750848201515b600019600385901b1c1916600184901b17845561099a565b600084815260208120601f198516915b82811015610a345787850151825560209485019460019092019101610a14565b5084821015610a525786840151600019600387901b60f8161c191681555b50505050600190811b0190555056fe608060405234801561001057600080fd5b5060405161291938038061291983398101604081905261002f91610266565b600a80546001600160a01b0319163317905560408051610140810182528c8152602081018c90529081018a9052606081018990526080810188905260a0810187905260c0810186905260e081018590526101008101849052600061012082018190528061009c8e82610479565b50602082015160018201906100b19082610479565b50604082015160028201906100c69082610479565b50606082015160038201906100db9082610479565b50608082015160048201906100f09082610479565b5060a082015160058201906101059082610479565b5060c0820151600682019061011a9082610479565b5060e082015160078201556101008201516008820155610120909101516009909101805460ff1916911515919091179055600e829055600f819055600a546040517f6066915a7d1edadb403bd27d8ea183ee708dfbf8236eb978496a0224e14c2df191610195916001600160a01b03909116906000906105ba565b60405180910390a150505050505050505050506106bf565b634e487b7160e01b600052604160045260246000fd5b600082601f8301126101d457600080fd5b81516001600160401b038111156101ed576101ed6101ad565b604051601f8201601f19908116603f011681016001600160401b038111828210171561021b5761021b6101ad565b60405281815283820160200185101561023357600080fd5b60005b8281101561025257602081860181015183830182015201610236565b506000918101602001919091529392505050565b60008060008060008060008060008060006101608c8e03121561028857600080fd5b8b516001600160401b0381111561029e57600080fd5b6102aa8e828f016101c3565b60208e0151909c5090506001600160401b038111156102c857600080fd5b6102d48e828f016101c3565b60408e0151909b5090506001600160401b038111156102f257600080fd5b6102fe8e828f016101c3565b60608e0151909a5090506001600160401b0381111561031c57600080fd5b6103288e828f016101c3565b60808e015190995090506001600160401b0381111561034657600080fd5b6103528e828f016101c3565b60a08e015190985090506001600160401b0381111561037057600080fd5b61037c8e828f016101c3565b60c08e015190975090506001600160401b0381111561039a57600080fd5b6103a68e828f016101c3565b955050600060e08d015190508094505060006101008d015190508093505060006101208d015190508092505060006101408d01519050809150509295989b509295989b9093969950565b600181811c9082168061040457607f821691505b60208210810361042457634e487b7160e01b600052602260045260246000fd5b50919050565b601f82111561047457806000526020600020601f840160051c810160208510156104515750805b601f840160051c820191505b81811015610471576000815560010161045d565b50505b505050565b81516001600160401b03811115610492576104926101ad565b6104a6816104a084546103f0565b8461042a565b6020601f8211600181146104da57600083156104c25750848201515b600019600385901b1c1916600184901b178455610471565b600084815260208120601f198516915b8281101561050a57878501518255602094850194600190920191016104ea565b50848210156105285786840151600019600387901b60f8161c191681555b50505050600190811b01905550565b60008154610544816103f0565b80855260018216801561055e576001811461057a576105b1565b60ff1983166020870152602082151560051b87010193506105b1565b84600052602060002060005b838110156105a85781546020828a010152600182019150602081019050610586565b87016020019450505b50505092915050565b6001600160a01b03831681526040602082018190526101409082015260006105e6610180830184610537565b828103603f190160608401526105ff8160018601610537565b838103603f19016080850152905061061a8160028601610537565b838103603f190160a085015290506106358160038601610537565b838103603f190160c085015290506106508160048601610537565b838103603f190160e0850152905061066b8160058601610537565b838103603f190161010085015290506106878160068601610537565b9050600784015461012084015260088401546101408401526106ad600985015460ff1690565b80151561016085015250949350505050565b61224b806106ce6000396000f3fe6080604052600436106100a75760003560e01c80637cc1f867116100645780637cc1f867146101845780638dbb8c1c146101a85780639497d3ae146101be578063bf9ce952146101d4578063f2aa8218146101ff578063f40e84711461021f57600080fd5b806308551a53146100ac5780631d834409146100e957806320467b371461010d5780633ccfd60b1461012f5780635a8cf8ff146101445780636eba2b1314610157575b600080fd5b3480156100b857600080fd5b50600a546100cc906001600160a01b031681565b6040516001600160a01b0390911681526020015b60405180910390f35b3480156100f557600080fd5b506100ff600d5481565b6040519081526020016100e0565b34801561011957600080fd5b5061012d61012836600461196f565b610255565b005b34801561013b57600080fd5b5061012d610371565b61012d6101523660046119bd565b6104e8565b34801561016357600080fd5b50610177610172366004611ab1565b6107e1565b6040516100e09190611b19565b34801561019057600080fd5b50610199610c10565b6040516100e093929190611c1b565b3480156101b457600080fd5b506100ff600f5481565b3480156101ca57600080fd5b506100ff600e5481565b3480156101e057600080fd5b506101e96110c0565b6040516100e09a99989796959493929190611d39565b34801561020b57600080fd5b506100cc61021a366004611deb565b6114bd565b34801561022b57600080fd5b5061023f61023a366004611ab1565b6114e7565b6040516100e09a99989796959493929190611e04565b600a546001600160a01b031633146102885760405162461bcd60e51b815260040161027f90611eb2565b60405180910390fd5b6001600160a01b038281166000908152600b6020526040902054166102e65760405162461bcd60e51b815260206004820152601460248201527313dc99195c88191bd95cc81b9bdd08195e1a5cdd60621b604482015260640161027f565b6001600160a01b0382166000908152600b6020526040902060088101805460ff1916600117905560090161031a8282611f7e565b506001600160a01b0382166000908152600b60205260409081902090517f686aa43c80d44e65dc44e1f4cbe0c06ce0c316026c57b42505fc32419330846491610365918591906120c0565b60405180910390a15050565b600a546001600160a01b0316331461039b5760405162461bcd60e51b815260040161027f90611eb2565b6000600d54116103e05760405162461bcd60e51b815260206004820152601060248201526f139bc81bdc99195c9cc81c1b1858d95960821b604482015260640161027f565b600160005b600c5481101561044657600b6000600c8381548110610406576104066121ac565b60009182526020808320909101546001600160a01b0316835282019290925260400190206008015460ff1661043e5760009150610446565b6001016103e5565b50806104ab5760405162461bcd60e51b815260206004820152602e60248201527f416c6c206f7264657273206d75737420626520636f6d706c657465642062656660448201526d1bdc99481dda5d1a191c985dd85b60921b606482015260840161027f565b600a546040516001600160a01b03909116904780156108fc02916000818181858888f193505050501580156104e4573d6000803e3d6000fd5b5050565b336000908152600b60205260409020546001600160a01b0316156105455760405162461bcd60e51b815260206004820152601460248201527313dc99195c88185b1c9958591e481c1b1858d95960621b604482015260640161027f565b60008311801561055757506007548311155b6105965760405162461bcd60e51b815260206004820152601060248201526f496e76616c6964207175616e7469747960801b604482015260640161027f565b60006105a28483611876565b9050803410156105eb5760405162461bcd60e51b8152602060048201526014602482015273125b9cdd59999a58da595b9d081c185e5b595b9d60621b604482015260640161027f565b60408051610140810182523380825260208083018b81528385018b9052606084018a90526080840189905260a0840188905260c0840187905260e084018690526000610100850181905285518084018752818152610120860152928352600b909152929020815181546001600160a01b0319166001600160a01b03909116178155915190919060018201906106809082611f7e565b50604082015160028201906106959082611f7e565b50606082015160038201906106aa9082611f7e565b506080820151600482015560a082015160058201906106c99082611f7e565b5060c082015160068201906106de9082611f7e565b5060e0820151600782015561010082015160088201805460ff191691151591909117905561012082015160098201906107179082611f7e565b5050600c80546001818101835560009283527fdf6966c971051c3d54ec59162606531493a51404a002842f56009d7e5cf4a8c790910180546001600160a01b03191633179055600d805491935091906107719084906121d8565b90915550506007805485919060009061078b9084906121eb565b9091555050336000818152600b60205260409081902090517f18982cd8cf9dd0cce97a507e43636445ba7fd3adc0203b3fb51bef96a8995f0b926107d09290916120c0565b60405180910390a150505050505050565b61084260405180610140016040528060006001600160a01b0316815260200160608152602001606081526020016060815260200160008152602001606081526020016060815260200160008152602001600015158152602001606081525090565b6001600160a01b038083166000908152600b602090815260409182902082516101408101909352805490931682526001830180549293929184019161088690611ef5565b80601f01602080910402602001604051908101604052809291908181526020018280546108b290611ef5565b80156108ff5780601f106108d4576101008083540402835291602001916108ff565b820191906000526020600020905b8154815290600101906020018083116108e257829003601f168201915b5050505050815260200160028201805461091890611ef5565b80601f016020809104026020016040519081016040528092919081815260200182805461094490611ef5565b80156109915780601f1061096657610100808354040283529160200191610991565b820191906000526020600020905b81548152906001019060200180831161097457829003601f168201915b505050505081526020016003820180546109aa90611ef5565b80601f01602080910402602001604051908101604052809291908181526020018280546109d690611ef5565b8015610a235780601f106109f857610100808354040283529160200191610a23565b820191906000526020600020905b815481529060010190602001808311610a0657829003601f168201915b5050505050815260200160048201548152602001600582018054610a4690611ef5565b80601f0160208091040260200160405190810160405280929190818152602001828054610a7290611ef5565b8015610abf5780601f10610a9457610100808354040283529160200191610abf565b820191906000526020600020905b815481529060010190602001808311610aa257829003601f168201915b50505050508152602001600682018054610ad890611ef5565b80601f0160208091040260200160405190810160405280929190818152602001828054610b0490611ef5565b8015610b515780601f10610b2657610100808354040283529160200191610b51565b820191906000526020600020905b815481529060010190602001808311610b3457829003601f168201915b505050918352505060078201546020820152600882015460ff1615156040820152600982018054606090920191610b8790611ef5565b80601f0160208091040260200160405190810160405280929190818152602001828054610bb390611ef5565b8015610c005780601f10610bd557610100808354040283529160200191610c00565b820191906000526020600020905b815481529060010190602001808311610be357829003601f168201915b5050505050815250509050919050565b610c686040518061014001604052806060815260200160608152602001606081526020016060815260200160608152602001606081526020016060815260200160008152602001600081526020016000151581525090565b6000806000600a60009054906101000a90046001600160a01b0316600f548260405180610140016040529081600082018054610ca390611ef5565b80601f0160208091040260200160405190810160405280929190818152602001828054610ccf90611ef5565b8015610d1c5780601f10610cf157610100808354040283529160200191610d1c565b820191906000526020600020905b815481529060010190602001808311610cff57829003601f168201915b50505050508152602001600182018054610d3590611ef5565b80601f0160208091040260200160405190810160405280929190818152602001828054610d6190611ef5565b8015610dae5780601f10610d8357610100808354040283529160200191610dae565b820191906000526020600020905b815481529060010190602001808311610d9157829003601f168201915b50505050508152602001600282018054610dc790611ef5565b80601f0160208091040260200160405190810160405280929190818152602001828054610df390611ef5565b8015610e405780601f10610e1557610100808354040283529160200191610e40565b820191906000526020600020905b815481529060010190602001808311610e2357829003601f168201915b50505050508152602001600382018054610e5990611ef5565b80601f0160208091040260200160405190810160405280929190818152602001828054610e8590611ef5565b8015610ed25780601f10610ea757610100808354040283529160200191610ed2565b820191906000526020600020905b815481529060010190602001808311610eb557829003601f168201915b50505050508152602001600482018054610eeb90611ef5565b80601f0160208091040260200160405190810160405280929190818152602001828054610f1790611ef5565b8015610f645780601f10610f3957610100808354040283529160200191610f64565b820191906000526020600020905b815481529060010190602001808311610f4757829003601f168201915b50505050508152602001600582018054610f7d90611ef5565b80601f0160208091040260200160405190810160405280929190818152602001828054610fa990611ef5565b8015610ff65780601f10610fcb57610100808354040283529160200191610ff6565b820191906000526020600020905b815481529060010190602001808311610fd957829003601f168201915b5050505050815260200160068201805461100f90611ef5565b80601f016020809104026020016040519081016040528092919081815260200182805461103b90611ef5565b80156110885780601f1061105d57610100808354040283529160200191611088565b820191906000526020600020905b81548152906001019060200180831161106b57829003601f168201915b5050509183525050600782015460208201526008820154604082015260099091015460ff161515606090910152969195509350915050565b6000805481906110cf90611ef5565b80601f01602080910402602001604051908101604052809291908181526020018280546110fb90611ef5565b80156111485780601f1061111d57610100808354040283529160200191611148565b820191906000526020600020905b81548152906001019060200180831161112b57829003601f168201915b50505050509080600101805461115d90611ef5565b80601f016020809104026020016040519081016040528092919081815260200182805461118990611ef5565b80156111d65780601f106111ab576101008083540402835291602001916111d6565b820191906000526020600020905b8154815290600101906020018083116111b957829003601f168201915b5050505050908060020180546111eb90611ef5565b80601f016020809104026020016040519081016040528092919081815260200182805461121790611ef5565b80156112645780601f1061123957610100808354040283529160200191611264565b820191906000526020600020905b81548152906001019060200180831161124757829003601f168201915b50505050509080600301805461127990611ef5565b80601f01602080910402602001604051908101604052809291908181526020018280546112a590611ef5565b80156112f25780601f106112c7576101008083540402835291602001916112f2565b820191906000526020600020905b8154815290600101906020018083116112d557829003601f168201915b50505050509080600401805461130790611ef5565b80601f016020809104026020016040519081016040528092919081815260200182805461133390611ef5565b80156113805780601f1061135557610100808354040283529160200191611380565b820191906000526020600020905b81548152906001019060200180831161136357829003601f168201915b50505050509080600501805461139590611ef5565b80601f01602080910402602001604051908101604052809291908181526020018280546113c190611ef5565b801561140e5780601f106113e35761010080835404028352916020019161140e565b820191906000526020600020905b8154815290600101906020018083116113f157829003601f168201915b50505050509080600601805461142390611ef5565b80601f016020809104026020016040519081016040528092919081815260200182805461144f90611ef5565b801561149c5780601f106114715761010080835404028352916020019161149c565b820191906000526020600020905b81548152906001019060200180831161147f57829003601f168201915b50505050600783015460088401546009909401549293909290915060ff168a565b600c81815481106114cd57600080fd5b6000918252602090912001546001600160a01b0316905081565b600b60205260009081526040902080546001820180546001600160a01b03909216929161151390611ef5565b80601f016020809104026020016040519081016040528092919081815260200182805461153f90611ef5565b801561158c5780601f106115615761010080835404028352916020019161158c565b820191906000526020600020905b81548152906001019060200180831161156f57829003601f168201915b5050505050908060020180546115a190611ef5565b80601f01602080910402602001604051908101604052809291908181526020018280546115cd90611ef5565b801561161a5780601f106115ef5761010080835404028352916020019161161a565b820191906000526020600020905b8154815290600101906020018083116115fd57829003601f168201915b50505050509080600301805461162f90611ef5565b80601f016020809104026020016040519081016040528092919081815260200182805461165b90611ef5565b80156116a85780601f1061167d576101008083540402835291602001916116a8565b820191906000526020600020905b81548152906001019060200180831161168b57829003601f168201915b5050505050908060040154908060050180546116c390611ef5565b80601f01602080910402602001604051908101604052809291908181526020018280546116ef90611ef5565b801561173c5780601f106117115761010080835404028352916020019161173c565b820191906000526020600020905b81548152906001019060200180831161171f57829003601f168201915b50505050509080600601805461175190611ef5565b80601f016020809104026020016040519081016040528092919081815260200182805461177d90611ef5565b80156117ca5780601f1061179f576101008083540402835291602001916117ca565b820191906000526020600020905b8154815290600101906020018083116117ad57829003601f168201915b50505050600783015460088401546009850180549495929460ff9092169350906117f390611ef5565b80601f016020809104026020016040519081016040528092919081815260200182805461181f90611ef5565b801561186c5780601f106118415761010080835404028352916020019161186c565b820191906000526020600020905b81548152906001019060200180831161184f57829003601f168201915b505050505090508a565b600080600e548461188791906121fe565b8351909150156118a5576118a2662386f26fc10000826121d8565b90505b90505b92915050565b80356001600160a01b03811681146118c557600080fd5b919050565b634e487b7160e01b600052604160045260246000fd5b600082601f8301126118f157600080fd5b813567ffffffffffffffff81111561190b5761190b6118ca565b604051601f8201601f19908116603f0116810167ffffffffffffffff8111828210171561193a5761193a6118ca565b60405281815283820160200185101561195257600080fd5b816020850160208301376000918101602001919091529392505050565b6000806040838503121561198257600080fd5b61198b836118ae565b9150602083013567ffffffffffffffff8111156119a757600080fd5b6119b3858286016118e0565b9150509250929050565b60008060008060008060c087890312156119d657600080fd5b863567ffffffffffffffff8111156119ed57600080fd5b6119f989828a016118e0565b965050602087013567ffffffffffffffff811115611a1657600080fd5b611a2289828a016118e0565b955050604087013567ffffffffffffffff811115611a3f57600080fd5b611a4b89828a016118e0565b94505060608701359250608087013567ffffffffffffffff811115611a6f57600080fd5b611a7b89828a016118e0565b92505060a087013567ffffffffffffffff811115611a9857600080fd5b611aa489828a016118e0565b9150509295509295509295565b600060208284031215611ac357600080fd5b611acc826118ae565b9392505050565b6000815180845260005b81811015611af957602081850181015186830182015201611add565b506000602082860101526020601f19601f83011685010191505092915050565b60208152611b336020820183516001600160a01b03169052565b600060208301516101406040840152611b50610160840182611ad3565b90506040840151601f19848303016060850152611b6d8282611ad3565b9150506060840151601f19848303016080850152611b8b8282611ad3565b915050608084015160a084015260a0840151601f198483030160c0850152611bb38282611ad3565b91505060c0840151601f198483030160e0850152611bd18282611ad3565b91505060e0840151610100840152610100840151611bf461012085018215159052565b50610120840151838203601f1901610140850152611c128282611ad3565b95945050505050565b60608152600084516101406060840152611c396101a0840182611ad3565b90506020860151605f19848303016080850152611c568282611ad3565b9150506040860151605f198483030160a0850152611c748282611ad3565b9150506060860151605f198483030160c0850152611c928282611ad3565b9150506080860151605f198483030160e0850152611cb08282611ad3565b91505060a0860151605f1984830301610100850152611ccf8282611ad3565b91505060c0860151605f1984830301610120850152611cee8282611ad3565b91505060e0860151610140840152610100860151610160840152610120860151611d1d61018085018215159052565b506001600160a01b039490941660208301525060400152919050565b61014081526000611d4e61014083018d611ad3565b8281036020840152611d60818d611ad3565b90508281036040840152611d74818c611ad3565b90508281036060840152611d88818b611ad3565b90508281036080840152611d9c818a611ad3565b905082810360a0840152611db08189611ad3565b905082810360c0840152611dc48188611ad3565b60e08401969096525050610100810192909252151561012090910152979650505050505050565b600060208284031215611dfd57600080fd5b5035919050565b6001600160a01b038b16815261014060208201819052600090611e299083018c611ad3565b8281036040840152611e3b818c611ad3565b90508281036060840152611e4f818b611ad3565b905088608084015282810360a0840152611e698189611ad3565b905082810360c0840152611e7d8188611ad3565b90508560e0840152841515610100840152828103610120840152611ea18185611ad3565b9d9c50505050505050505050505050565b60208082526023908201527f4f6e6c792073656c6c65722063616e20706572666f726d20746869732061637460408201526234b7b760e91b606082015260800190565b600181811c90821680611f0957607f821691505b602082108103611f2957634e487b7160e01b600052602260045260246000fd5b50919050565b601f821115611f7957806000526020600020601f840160051c81016020851015611f565750805b601f840160051c820191505b81811015611f765760008155600101611f62565b50505b505050565b815167ffffffffffffffff811115611f9857611f986118ca565b611fac81611fa68454611ef5565b84611f2f565b6020601f821160018114611fe05760008315611fc85750848201515b600019600385901b1c1916600184901b178455611f76565b600084815260208120601f198516915b828110156120105787850151825560209485019460019092019101611ff0565b508482101561202e5786840151600019600387901b60f8161c191681555b50505050600190811b01905550565b6000815461204a81611ef5565b8085526001821680156120645760018114612080576120b7565b60ff1983166020870152602082151560051b87010193506120b7565b84600052602060002060005b838110156120ae5781546020828a01015260018201915060208101905061208c565b87016020019450505b50505092915050565b6001600160a01b038381168252604060208301819052835490911690820152610140606082015260006120fa61018083016001850161203d565b828103603f19016080840152612113816002860161203d565b838103603f190160a0850152905061212e816003860161203d565b600485015460c0850152838103603f190160e08501529050612153816005860161203d565b838103603f1901610100850152905061216f816006860161203d565b9050600784015461012084015261218a600885015460ff1690565b1515610140840152603f1983820301610160840152611c12816009860161203d565b634e487b7160e01b600052603260045260246000fd5b634e487b7160e01b600052601160045260246000fd5b808201808211156118a8576118a86121c2565b818103818111156118a8576118a86121c2565b80820281158282048414176118a8576118a86121c256fea2646970667358221220490ab3115d701c867b00818f0c8cb91231707d437f6e301c37cd722c93cc5f0164736f6c634300081a0033a264697066735822122002456de483572fe93ca667bd02d21d88ae52d6720bd7371da085e79e7ee75ce164736f6c634300081a0033",
  "devdoc": {
    "kind": "dev",
    "methods": {},
    "version": 1
  },
  "userdoc": {
    "kind": "user",
    "methods": {},
    "version": 1
  },
  "storageLayout": {
    "storage": [
      {
        "astId": 444,
        "contract": "contracts/CommerceFactory.sol:CommerceFactory",
        "label": "deployedContracts",
        "offset": 0,
        "slot": "0",
        "type": "t_array(t_struct(ContractInfo)440_storage)dyn_storage"
      }
    ],
    "types": {
      "t_address": {
        "encoding": "inplace",
        "label": "address",
        "numberOfBytes": "20"
      },
      "t_array(t_struct(ContractInfo)440_storage)dyn_storage": {
        "base": "t_struct(ContractInfo)440_storage",
        "encoding": "dynamic_array",
        "label": "struct CommerceFactory.ContractInfo[]",
        "numberOfBytes": "32"
      },
      "t_string_storage": {
        "encoding": "bytes",
        "label": "string",
        "numberOfBytes": "32"
      },
      "t_struct(ContractInfo)440_storage": {
        "encoding": "inplace",
        "label": "struct CommerceFactory.ContractInfo",
        "members": [
          {
            "astId": 433,
            "contract": "contracts/CommerceFactory.sol:CommerceFactory",
            "label": "contractAddress",
            "offset": 0,
            "slot": "0",
            "type": "t_address"
          },
          {
            "astId": 435,
            "contract": "contracts/CommerceFactory.sol:CommerceFactory",
            "label": "title",
            "offset": 0,
            "slot": "1",
            "type": "t_string_storage"
          },
          {
            "astId": 437,
            "contract": "contracts/CommerceFactory.sol:CommerceFactory",
            "label": "description",
            "offset": 0,
            "slot": "2",
            "type": "t_string_storage"
          },
          {
            "astId": 439,
            "contract": "contracts/CommerceFactory.sol:CommerceFactory",
            "label": "timestamp",
            "offset": 0,
            "slot": "3",
            "type": "t_uint256"
          }
        ],
        "numberOfBytes": "128"
      },
      "t_uint256": {
        "encoding": "inplace",
        "label": "uint256",
        "numberOfBytes": "32"
      }
    }
  }
}