{
  "address": "0xd563fB64e8e46285460a578856c857528e687EAf",
  "abi": [
    {
      "inputs": [],
      "stateMutability": "nonpayable",
      "type": "constructor"
    },
    {
      "anonymous": false,
      "inputs": [
        {
          "indexed": false,
          "internalType": "address",
          "name": "user",
          "type": "address"
        },
        {
          "indexed": false,
          "internalType": "string",
          "name": "instructions",
          "type": "string"
        }
      ],
      "name": "CustomInstructionsUpdated",
      "type": "event"
    },
    {
      "anonymous": false,
      "inputs": [
        {
          "indexed": false,
          "internalType": "address",
          "name": "user",
          "type": "address"
        },
        {
          "indexed": false,
          "internalType": "string",
          "name": "deliveryAddress",
          "type": "string"
        }
      ],
      "name": "DeliveryAddressUpdated",
      "type": "event"
    },
    {
      "anonymous": false,
      "inputs": [
        {
          "indexed": false,
          "internalType": "string",
          "name": "listingID",
          "type": "string"
        },
        {
          "indexed": false,
          "internalType": "address",
          "name": "owner",
          "type": "address"
        }
      ],
      "name": "DeliveryConfirmed",
      "type": "event"
    },
    {
      "anonymous": false,
      "inputs": [
        {
          "indexed": false,
          "internalType": "string",
          "name": "listingID",
          "type": "string"
        },
        {
          "indexed": false,
          "internalType": "address",
          "name": "owner",
          "type": "address"
        },
        {
          "indexed": false,
          "internalType": "uint32",
          "name": "price",
          "type": "uint32"
        },
        {
          "indexed": false,
          "internalType": "uint32",
          "name": "quantity",
          "type": "uint32"
        }
      ],
      "name": "ProductListed",
      "type": "event"
    },
    {
      "anonymous": false,
      "inputs": [
        {
          "indexed": false,
          "internalType": "string",
          "name": "listingID",
          "type": "string"
        },
        {
          "indexed": false,
          "internalType": "address",
          "name": "buyer",
          "type": "address"
        },
        {
          "indexed": false,
          "internalType": "uint32",
          "name": "quantity",
          "type": "uint32"
        }
      ],
      "name": "ProductPurchased",
      "type": "event"
    },
    {
      "inputs": [
        {
          "internalType": "string",
          "name": "_listingID",
          "type": "string"
        }
      ],
      "name": "confirmDelivery",
      "outputs": [],
      "stateMutability": "nonpayable",
      "type": "function"
    },
    {
      "inputs": [
        {
          "internalType": "string",
          "name": "_title",
          "type": "string"
        },
        {
          "internalType": "string",
          "name": "_description",
          "type": "string"
        },
        {
          "internalType": "string",
          "name": "_photo",
          "type": "string"
        },
        {
          "internalType": "string",
          "name": "_location",
          "type": "string"
        },
        {
          "internalType": "string",
          "name": "_shippingMethod",
          "type": "string"
        },
        {
          "internalType": "string",
          "name": "_upcharges",
          "type": "string"
        },
        {
          "internalType": "string",
          "name": "_category",
          "type": "string"
        },
        {
          "internalType": "uint32",
          "name": "_price",
          "type": "uint32"
        },
        {
          "internalType": "uint32",
          "name": "_timeValidity",
          "type": "uint32"
        },
        {
          "internalType": "uint32",
          "name": "_quantity",
          "type": "uint32"
        },
        {
          "internalType": "string",
          "name": "_listingID",
          "type": "string"
        }
      ],
      "name": "createProduct",
      "outputs": [],
      "stateMutability": "nonpayable",
      "type": "function"
    },
    {
      "inputs": [],
      "name": "getAllListings",
      "outputs": [
        {
          "internalType": "string[]",
          "name": "",
          "type": "string[]"
        }
      ],
      "stateMutability": "view",
      "type": "function"
    },
    {
      "inputs": [
        {
          "internalType": "address",
          "name": "user",
          "type": "address"
        }
      ],
      "name": "getCustomInstructions",
      "outputs": [
        {
          "internalType": "string",
          "name": "",
          "type": "string"
        }
      ],
      "stateMutability": "view",
      "type": "function"
    },
    {
      "inputs": [
        {
          "internalType": "address",
          "name": "user",
          "type": "address"
        }
      ],
      "name": "getDeliveryAddress",
      "outputs": [
        {
          "internalType": "string",
          "name": "",
          "type": "string"
        }
      ],
      "stateMutability": "view",
      "type": "function"
    },
    {
      "inputs": [],
      "name": "getListingTitle",
      "outputs": [
        {
          "internalType": "string",
          "name": "",
          "type": "string"
        }
      ],
      "stateMutability": "view",
      "type": "function"
    },
    {
      "inputs": [
        {
          "internalType": "string",
          "name": "listingID",
          "type": "string"
        }
      ],
      "name": "getProductData",
      "outputs": [
        {
          "components": [
            {
              "internalType": "string",
              "name": "title",
              "type": "string"
            },
            {
              "internalType": "string",
              "name": "description",
              "type": "string"
            },
            {
              "internalType": "string",
              "name": "photo",
              "type": "string"
            },
            {
              "internalType": "string",
              "name": "location",
              "type": "string"
            },
            {
              "internalType": "string",
              "name": "shippingMethod",
              "type": "string"
            },
            {
              "internalType": "string",
              "name": "upcharges",
              "type": "string"
            },
            {
              "internalType": "string",
              "name": "category",
              "type": "string"
            },
            {
              "internalType": "uint32",
              "name": "price",
              "type": "uint32"
            },
            {
              "internalType": "uint32",
              "name": "timeValidity",
              "type": "uint32"
            },
            {
              "internalType": "uint32",
              "name": "quantity",
              "type": "uint32"
            },
            {
              "internalType": "address payable",
              "name": "creatorWallet",
              "type": "address"
            },
            {
              "internalType": "bool",
              "name": "isDelivered",
              "type": "bool"
            }
          ],
          "internalType": "struct CommerceContract.ProductData",
          "name": "",
          "type": "tuple"
        }
      ],
      "stateMutability": "view",
      "type": "function"
    },
    {
      "inputs": [
        {
          "internalType": "uint256",
          "name": "",
          "type": "uint256"
        }
      ],
      "name": "listingsArray",
      "outputs": [
        {
          "internalType": "string",
          "name": "",
          "type": "string"
        }
      ],
      "stateMutability": "view",
      "type": "function"
    },
    {
      "inputs": [
        {
          "internalType": "string",
          "name": "",
          "type": "string"
        }
      ],
      "name": "products",
      "outputs": [
        {
          "internalType": "string",
          "name": "title",
          "type": "string"
        },
        {
          "internalType": "string",
          "name": "description",
          "type": "string"
        },
        {
          "internalType": "string",
          "name": "photo",
          "type": "string"
        },
        {
          "internalType": "string",
          "name": "location",
          "type": "string"
        },
        {
          "internalType": "string",
          "name": "shippingMethod",
          "type": "string"
        },
        {
          "internalType": "string",
          "name": "upcharges",
          "type": "string"
        },
        {
          "internalType": "string",
          "name": "category",
          "type": "string"
        },
        {
          "internalType": "uint32",
          "name": "price",
          "type": "uint32"
        },
        {
          "internalType": "uint32",
          "name": "timeValidity",
          "type": "uint32"
        },
        {
          "internalType": "uint32",
          "name": "quantity",
          "type": "uint32"
        },
        {
          "internalType": "address payable",
          "name": "creatorWallet",
          "type": "address"
        },
        {
          "internalType": "bool",
          "name": "isDelivered",
          "type": "bool"
        }
      ],
      "stateMutability": "view",
      "type": "function"
    },
    {
      "inputs": [
        {
          "internalType": "string",
          "name": "_listingID",
          "type": "string"
        },
        {
          "internalType": "uint32",
          "name": "_quantity",
          "type": "uint32"
        }
      ],
      "name": "purchaseProduct",
      "outputs": [],
      "stateMutability": "payable",
      "type": "function"
    },
    {
      "inputs": [
        {
          "internalType": "string",
          "name": "_instructions",
          "type": "string"
        }
      ],
      "name": "setCustomInstructions",
      "outputs": [],
      "stateMutability": "nonpayable",
      "type": "function"
    },
    {
      "inputs": [
        {
          "internalType": "string",
          "name": "_deliveryAddress",
          "type": "string"
        }
      ],
      "name": "setDeliveryAddress",
      "outputs": [],
      "stateMutability": "nonpayable",
      "type": "function"
    }
  ],
  "transactionHash": "0x5a049a9a8270cb6d01eaa3fb31cfb6eb5260fa3809004b3e92f357ce0e27e709",
  "args": [],
  "numDeployments": 4,
  "solcInputHash": "2519f57c930ec0b9649ff3a22ab7badb",
  "bytecode": "0x608060405234801561001057600080fd5b5060008054336001600160a01b0319918216811783556001805490921617905561202890819061004090396000f3fe6080604052600436106100a75760003560e01c8063a450646011610064578063a45064601461019e578063a7e8eb3b146101be578063ae73ccec146101d1578063b735e9b5146101f3578063e556831714610213578063ecf5f42b14610233576100a7565b80630186a423146100ac57806348fb8c22146100ed57806352276fdb1461011a578063522ecace1461012f578063818648e11461014f578063932f4ece1461017c575b600080fd5b3480156100b857600080fd5b506100cc6100c736600461170b565b610253565b6040516100e49c9b9a99989796959493929190611abb565b60405180910390f35b3480156100f957600080fd5b5061010d610108366004611905565b61068e565b6040516100e49190611a06565b34801561012657600080fd5b5061010d61073a565b34801561013b57600080fd5b5061010d61014a3660046116dd565b6107cc565b34801561015b57600080fd5b5061016f61016a36600461170b565b6108c5565b6040516100e49190611dcd565b34801561018857600080fd5b5061019c61019736600461170b565b610dab565b005b3480156101aa57600080fd5b5061019c6101b936600461170b565b610e08565b61019c6101cc3660046118b9565b610f61565b3480156101dd57600080fd5b506101e66110b4565b6040516100e491906119a6565b3480156101ff57600080fd5b5061019c61020e366004611746565b61118d565b34801561021f57600080fd5b5061019c61022e36600461170b565b611475565b34801561023f57600080fd5b5061010d61024e3660046116dd565b6114c7565b805160208183018101805160038252928201919093012091528054819061027990611f8b565b80601f01602080910402602001604051908101604052809291908181526020018280546102a590611f8b565b80156102f25780601f106102c7576101008083540402835291602001916102f2565b820191906000526020600020905b8154815290600101906020018083116102d557829003601f168201915b50505050509080600101805461030790611f8b565b80601f016020809104026020016040519081016040528092919081815260200182805461033390611f8b565b80156103805780601f1061035557610100808354040283529160200191610380565b820191906000526020600020905b81548152906001019060200180831161036357829003601f168201915b50505050509080600201805461039590611f8b565b80601f01602080910402602001604051908101604052809291908181526020018280546103c190611f8b565b801561040e5780601f106103e35761010080835404028352916020019161040e565b820191906000526020600020905b8154815290600101906020018083116103f157829003601f168201915b50505050509080600301805461042390611f8b565b80601f016020809104026020016040519081016040528092919081815260200182805461044f90611f8b565b801561049c5780601f106104715761010080835404028352916020019161049c565b820191906000526020600020905b81548152906001019060200180831161047f57829003601f168201915b5050505050908060040180546104b190611f8b565b80601f01602080910402602001604051908101604052809291908181526020018280546104dd90611f8b565b801561052a5780601f106104ff5761010080835404028352916020019161052a565b820191906000526020600020905b81548152906001019060200180831161050d57829003601f168201915b50505050509080600501805461053f90611f8b565b80601f016020809104026020016040519081016040528092919081815260200182805461056b90611f8b565b80156105b85780601f1061058d576101008083540402835291602001916105b8565b820191906000526020600020905b81548152906001019060200180831161059b57829003601f168201915b5050505050908060060180546105cd90611f8b565b80601f01602080910402602001604051908101604052809291908181526020018280546105f990611f8b565b80156106465780601f1061061b57610100808354040283529160200191610646565b820191906000526020600020905b81548152906001019060200180831161062957829003601f168201915b505050506007830154600890930154919263ffffffff80821693640100000000830482169350600160401b830490911691600160601b90046001600160a01b03169060ff168c565b6002818154811061069e57600080fd5b9060005260206000200160009150905080546106b990611f8b565b80601f01602080910402602001604051908101604052809291908181526020018280546106e590611f8b565b80156107325780601f1061070757610100808354040283529160200191610732565b820191906000526020600020905b81548152906001019060200180831161071557829003601f168201915b505050505081565b60606007805461074990611f8b565b80601f016020809104026020016040519081016040528092919081815260200182805461077590611f8b565b80156107c25780601f10610797576101008083540402835291602001916107c2565b820191906000526020600020905b8154815290600101906020018083116107a557829003601f168201915b5050505050905090565b6001600160a01b0381166000908152600560205260408120805460609291906107f490611f8b565b90501161081c5760405162461bcd60e51b815260040161081390611d60565b60405180910390fd5b6001600160a01b0382166000908152600560205260409020805461083f90611f8b565b80601f016020809104026020016040519081016040528092919081815260200182805461086b90611f8b565b80156108b85780601f1061088d576101008083540402835291602001916108b8565b820191906000526020600020905b81548152906001019060200180831161089b57829003601f168201915b505050505090505b919050565b6108cd611531565b60006001600160a01b03166003836040516108e89190611966565b908152604051908190036020019020600701546001600160a01b03600160601b90910416141561092a5760405162461bcd60e51b815260040161081390611b9f565b60038260405161093a9190611966565b90815260200160405180910390206040518061018001604052908160008201805461096490611f8b565b80601f016020809104026020016040519081016040528092919081815260200182805461099090611f8b565b80156109dd5780601f106109b2576101008083540402835291602001916109dd565b820191906000526020600020905b8154815290600101906020018083116109c057829003601f168201915b505050505081526020016001820180546109f690611f8b565b80601f0160208091040260200160405190810160405280929190818152602001828054610a2290611f8b565b8015610a6f5780601f10610a4457610100808354040283529160200191610a6f565b820191906000526020600020905b815481529060010190602001808311610a5257829003601f168201915b50505050508152602001600282018054610a8890611f8b565b80601f0160208091040260200160405190810160405280929190818152602001828054610ab490611f8b565b8015610b015780601f10610ad657610100808354040283529160200191610b01565b820191906000526020600020905b815481529060010190602001808311610ae457829003601f168201915b50505050508152602001600382018054610b1a90611f8b565b80601f0160208091040260200160405190810160405280929190818152602001828054610b4690611f8b565b8015610b935780601f10610b6857610100808354040283529160200191610b93565b820191906000526020600020905b815481529060010190602001808311610b7657829003601f168201915b50505050508152602001600482018054610bac90611f8b565b80601f0160208091040260200160405190810160405280929190818152602001828054610bd890611f8b565b8015610c255780601f10610bfa57610100808354040283529160200191610c25565b820191906000526020600020905b815481529060010190602001808311610c0857829003601f168201915b50505050508152602001600582018054610c3e90611f8b565b80601f0160208091040260200160405190810160405280929190818152602001828054610c6a90611f8b565b8015610cb75780601f10610c8c57610100808354040283529160200191610cb7565b820191906000526020600020905b815481529060010190602001808311610c9a57829003601f168201915b50505050508152602001600682018054610cd090611f8b565b80601f0160208091040260200160405190810160405280929190818152602001828054610cfc90611f8b565b8015610d495780601f10610d1e57610100808354040283529160200191610d49565b820191906000526020600020905b815481529060010190602001808311610d2c57829003601f168201915b5050509183525050600782015463ffffffff8082166020840152640100000000820481166040840152600160401b8204166060830152600160601b90046001600160a01b0316608082015260089091015460ff16151560a09091015292915050565b3360009081526006602090815260409091208251610dcb928401906115af565b507f01ce78943c281f10861631ff461c646c7a6d1f748a4f1c4b8d3eafce36ebae353382604051610dfd929190611982565b60405180910390a150565b600381604051610e189190611966565b90815260405160209181900391909101902060070154600160601b90046001600160a01b03163314610e5c5760405162461bcd60e51b815260040161081390611cae565b600381604051610e6c9190611966565b9081526040519081900360200190206008015460ff1615610e9f5760405162461bcd60e51b815260040161081390611cf2565b6001600382604051610eb19190611966565b908152604051908190036020018120600801805492151560ff1990931692909217909155600390610ee3908390611966565b908152604051908190036020018120600701546001600160a01b03600160601b90910416904780156108fc02916000818181858888f19350505050158015610f2f573d6000803e3d6000fd5b507f8e7f2465d57c0d2ee4e9f885968a20b36712b73d9d659a145dd42122beae92c78133604051610dfd929190611a19565b6000600383604051610f739190611966565b908152604051908190036020019020600781015490915063ffffffff600160401b90910481169083161115610fba5760405162461bcd60e51b815260040161081390611d29565b6007810154610fd090839063ffffffff16611f0a565b63ffffffff163414610ff45760405162461bcd60e51b815260040161081390611bcf565b818160070160088282829054906101000a900463ffffffff166110179190611f36565b92506101000a81548163ffffffff021916908363ffffffff160217905550336004846040516110469190611966565b90815260405190819003602001812080546001600160a01b03939093166001600160a01b0319909316929092179091557f56175a6a000ddb23d40bb76f2819a9cf92504db2eb4ec635b19d9dbd9ae05d8a906110a790859033908690611a43565b60405180910390a1505050565b60606002805480602002602001604051908101604052809291908181526020016000905b828210156111845783829060005260206000200180546110f790611f8b565b80601f016020809104026020016040519081016040528092919081815260200182805461112390611f8b565b80156111705780601f1061114557610100808354040283529160200191611170565b820191906000526020600020905b81548152906001019060200180831161115357829003601f168201915b5050505050815260200190600101906110d8565b50505050905090565b60006001600160a01b03166003826040516111a89190611966565b908152604051908190036020019020600701546001600160a01b03600160601b90910416146111e95760405162461bcd60e51b815260040161081390611c77565b6040518061018001604052808c81526020018b81526020018a81526020018981526020018881526020018781526020018681526020018563ffffffff1681526020018463ffffffff1681526020018363ffffffff168152602001336001600160a01b03168152602001600015158152506003826040516112699190611966565b908152602001604051809103902060008201518160000190805190602001906112939291906115af565b5060208281015180516112ac92600185019201906115af565b50604082015180516112c89160028401916020909101906115af565b50606082015180516112e49160038401916020909101906115af565b50608082015180516113009160048401916020909101906115af565b5060a0820151805161131c9160058401916020909101906115af565b5060c082015180516113389160068401916020909101906115af565b5060e08201516007820180546101008501516101208601516101408701516001600160a01b0316600160601b026bffffffffffffffffffffffff63ffffffff928316600160401b026bffffffff0000000000000000199484166401000000000267ffffffff00000000199490981663ffffffff19909616959095179290921695909517919091169190911716919091179055610160909101516008909101805491151560ff1990921691909117905560028054600181018255600091909152815161142a917f405787fa12a823e0f2b7631cc41b3ba8828b3321ca811111fa75cd3aa3bb5ace019060208401906115af565b507fb146efb745af9542cfbdca0f12a6f72a4ce7e283832d8b61cd3dc5e51838bc6d813386856040516114609493929190611a7c565b60405180910390a15050505050505050505050565b3360009081526005602090815260409091208251611495928401906115af565b507f4ee9b8dbe704dd50721397f99b693b9946421e9fd429bb9edf1e6bf0864082723382604051610dfd929190611982565b6001600160a01b0381166000908152600660205260408120805460609291906114ef90611f8b565b90501161150e5760405162461bcd60e51b815260040161081390611c06565b6001600160a01b0382166000908152600660205260409020805461083f90611f8b565b60405180610180016040528060608152602001606081526020016060815260200160608152602001606081526020016060815260200160608152602001600063ffffffff168152602001600063ffffffff168152602001600063ffffffff16815260200160006001600160a01b031681526020016000151581525090565b8280546115bb90611f8b565b90600052602060002090601f0160209004810192826115dd5760008555611623565b82601f106115f657805160ff1916838001178555611623565b82800160010185558215611623579182015b82811115611623578251825591602001919060010190611608565b5061162f929150611633565b5090565b5b8082111561162f5760008155600101611634565b600082601f830112611658578081fd5b813567ffffffffffffffff8082111561167357611673611fdc565b604051601f8301601f19168101602001828111828210171561169757611697611fdc565b6040528281528483016020018610156116ae578384fd5b82602086016020830137918201602001929092529392505050565b803563ffffffff811681146108c057600080fd5b6000602082840312156116ee578081fd5b81356001600160a01b0381168114611704578182fd5b9392505050565b60006020828403121561171c578081fd5b813567ffffffffffffffff811115611732578182fd5b61173e84828501611648565b949350505050565b60008060008060008060008060008060006101608c8e031215611767578687fd5b67ffffffffffffffff808d35111561177d578788fd5b61178a8e8e358f01611648565b9b508060208e0135111561179c578788fd5b6117ac8e60208f01358f01611648565b9a508060408e013511156117be578788fd5b6117ce8e60408f01358f01611648565b99508060608e013511156117e0578788fd5b6117f08e60608f01358f01611648565b98508060808e01351115611802578788fd5b6118128e60808f01358f01611648565b97508060a08e01351115611824578687fd5b6118348e60a08f01358f01611648565b96508060c08e01351115611846578586fd5b6118568e60c08f01358f01611648565b955061186460e08e016116c9565b94506118736101008e016116c9565b93506118826101208e016116c9565b9250806101408e01351115611895578182fd5b506118a78d6101408e01358e01611648565b90509295989b509295989b9093969950565b600080604083850312156118cb578182fd5b823567ffffffffffffffff8111156118e1578283fd5b6118ed85828601611648565b9250506118fc602084016116c9565b90509250929050565b600060208284031215611916578081fd5b5035919050565b6001600160a01b03169052565b15159052565b60008151808452611948816020860160208601611f5b565b601f01601f19169290920160200192915050565b63ffffffff169052565b60008251611978818460208701611f5b565b9190910192915050565b6001600160a01b038316815260406020820181905260009061173e90830184611930565b6000602080830181845280855180835260408601915060408482028701019250838701855b828110156119f957603f198886030184526119e7858351611930565b945092850192908501906001016119cb565b5092979650505050505050565b6000602082526117046020830184611930565b600060408252611a2c6040830185611930565b905060018060a01b03831660208301529392505050565b600060608252611a566060830186611930565b6001600160a01b039490941660208301525063ffffffff91909116604090910152919050565b600060808252611a8f6080830187611930565b6001600160a01b039590951660208301525063ffffffff92831660408201529116606090910152919050565b60006101808252611ad061018083018f611930565b8281036020840152611ae2818f611930565b90508281036040840152611af6818e611930565b90508281036060840152611b0a818d611930565b90508281036080840152611b1e818c611930565b905082810360a0840152611b32818b611930565b905082810360c0840152611b46818a611930565b915050611b5660e083018861195c565b611b6461010083018761195c565b611b7261012083018661195c565b611b8061014083018561191d565b611b8e61016083018461192a565b9d9c50505050505050505050505050565b602080825260169082015275141c9bd91d58dd08191bd95cc81b9bdd08195e1a5cdd60521b604082015260600190565b6020808252601e908201527f496e636f727265637420616d6f756e74206f662045746865722073656e740000604082015260600190565b6020808252604b908201527f4e6f20637573746f6d20696e737472756374696f6e732073657420666f72207460408201527f68697320757365722e2041726520796f7520737572652074686579206861766560608201526a207075726368617365643f60a81b608082015260a00190565b60208082526019908201527f4c697374696e6720494420616c72656164792065786973747300000000000000604082015260600190565b60208082526024908201527f4f6e6c79207468652073656c6c65722063616e20636f6e6669726d2064656c696040820152637665727960e01b606082015260800190565b60208082526019908201527f50726f6475637420616c72656164792064656c69766572656400000000000000604082015260600190565b60208082526019908201527f4e6f7420656e6f756768206974656d7320696e2073746f636b00000000000000604082015260600190565b60208082526047908201527f4e6f2064656c697665727920616464726573732073657420627920746869732060408201527f757365722e2041726520796f75207375726520746865792068617665207075726060820152666368617365643f60c81b608082015260a00190565b6000602082528251610180806020850152611dec6101a0850183611930565b91506020850151601f1980868503016040870152611e0a8483611930565b93506040870151915080868503016060870152611e278483611930565b93506060870151915080868503016080870152611e448483611930565b935060808701519150808685030160a0870152611e618483611930565b935060a08701519150808685030160c0870152611e7e8483611930565b935060c08701519150808685030160e087015250611e9c8382611930565b92505060e0850151610100611eb38187018361195c565b8601519050610120611ec78682018361195c565b8601519050610140611edb8682018361195c565b8601519050610160611eef8682018361191d565b8601519050611f008583018261192a565b5090949350505050565b600063ffffffff80831681851681830481118215151615611f2d57611f2d611fc6565b02949350505050565b600063ffffffff83811690831681811015611f5357611f53611fc6565b039392505050565b60005b83811015611f76578181015183820152602001611f5e565b83811115611f85576000848401525b50505050565b600281046001821680611f9f57607f821691505b60208210811415611fc057634e487b7160e01b600052602260045260246000fd5b50919050565b634e487b7160e01b600052601160045260246000fd5b634e487b7160e01b600052604160045260246000fdfea2646970667358221220ae01376169d8ff193772b3a533471889c39cb554bcf681188bcd1a19bc2a629164736f6c63430008000033",
  "devdoc": {
    "kind": "dev",
    "methods": {
      "createProduct(string,string,string,string,string,string,string,uint32,uint32,uint32,string)": {
        "params": {
          "_category": "Product category.",
          "_description": "Product description.",
          "_listingID": "Listing ID.",
          "_location": "Product location.",
          "_photo": "Product photo URL.",
          "_price": "Price.",
          "_quantity": "Initial quantity.",
          "_shippingMethod": "Shipping method.",
          "_timeValidity": "Time validity.",
          "_title": "Listing title.",
          "_upcharges": "Additional upcharges."
        }
      },
      "getDeliveryAddress(address)": {
        "params": {
          "user": "User's ETH address."
        },
        "returns": {
          "_0": "Physical delivery address of the user."
        }
      },
      "purchaseProduct(string,uint32)": {
        "params": {
          "_listingID": "Listing ID.",
          "_quantity": "Purchase quantity."
        }
      },
      "setDeliveryAddress(string)": {
        "params": {
          "_deliveryAddress": "New delivery address."
        }
      }
    },
    "version": 1
  },
  "userdoc": {
    "kind": "user",
    "methods": {
      "createProduct(string,string,string,string,string,string,string,uint32,uint32,uint32,string)": {
        "notice": "Create a new product listing."
      },
      "getDeliveryAddress(address)": {
        "notice": "Retrieves delivery address of a user."
      },
      "purchaseProduct(string,uint32)": {
        "notice": "Allows a user to purchase a product."
      },
      "setDeliveryAddress(string)": {
        "notice": "Allows a user to set own delivery address against their ETH address."
      }
    },
    "version": 1
  },
  "storageLayout": {
    "storage": [
      {
        "astId": 3,
        "contract": "contracts/CommerceContract.sol:CommerceContract",
        "label": "owner",
        "offset": 0,
        "slot": "0",
        "type": "t_address"
      },
      {
        "astId": 5,
        "contract": "contracts/CommerceContract.sol:CommerceContract",
        "label": "deployer",
        "offset": 0,
        "slot": "1",
        "type": "t_address"
      },
      {
        "astId": 8,
        "contract": "contracts/CommerceContract.sol:CommerceContract",
        "label": "listingsArray",
        "offset": 0,
        "slot": "2",
        "type": "t_array(t_string_storage)dyn_storage"
      },
      {
        "astId": 13,
        "contract": "contracts/CommerceContract.sol:CommerceContract",
        "label": "products",
        "offset": 0,
        "slot": "3",
        "type": "t_mapping(t_string_memory_ptr,t_struct(ProductData)86_storage)"
      },
      {
        "astId": 17,
        "contract": "contracts/CommerceContract.sol:CommerceContract",
        "label": "productBuyers",
        "offset": 0,
        "slot": "4",
        "type": "t_mapping(t_string_memory_ptr,t_address)"
      },
      {
        "astId": 21,
        "contract": "contracts/CommerceContract.sol:CommerceContract",
        "label": "deliveryAddresses",
        "offset": 0,
        "slot": "5",
        "type": "t_mapping(t_address,t_string_storage)"
      },
      {
        "astId": 25,
        "contract": "contracts/CommerceContract.sol:CommerceContract",
        "label": "customInstructions",
        "offset": 0,
        "slot": "6",
        "type": "t_mapping(t_address,t_string_storage)"
      },
      {
        "astId": 88,
        "contract": "contracts/CommerceContract.sol:CommerceContract",
        "label": "listingTitle",
        "offset": 0,
        "slot": "7",
        "type": "t_string_storage"
      }
    ],
    "types": {
      "t_address": {
        "encoding": "inplace",
        "label": "address",
        "numberOfBytes": "20"
      },
      "t_address_payable": {
        "encoding": "inplace",
        "label": "address payable",
        "numberOfBytes": "20"
      },
      "t_array(t_string_storage)dyn_storage": {
        "base": "t_string_storage",
        "encoding": "dynamic_array",
        "label": "string[]",
        "numberOfBytes": "32"
      },
      "t_bool": {
        "encoding": "inplace",
        "label": "bool",
        "numberOfBytes": "1"
      },
      "t_mapping(t_address,t_string_storage)": {
        "encoding": "mapping",
        "key": "t_address",
        "label": "mapping(address => string)",
        "numberOfBytes": "32",
        "value": "t_string_storage"
      },
      "t_mapping(t_string_memory_ptr,t_address)": {
        "encoding": "mapping",
        "key": "t_string_memory_ptr",
        "label": "mapping(string => address)",
        "numberOfBytes": "32",
        "value": "t_address"
      },
      "t_mapping(t_string_memory_ptr,t_struct(ProductData)86_storage)": {
        "encoding": "mapping",
        "key": "t_string_memory_ptr",
        "label": "mapping(string => struct CommerceContract.ProductData)",
        "numberOfBytes": "32",
        "value": "t_struct(ProductData)86_storage"
      },
      "t_string_memory_ptr": {
        "encoding": "bytes",
        "label": "string",
        "numberOfBytes": "32"
      },
      "t_string_storage": {
        "encoding": "bytes",
        "label": "string",
        "numberOfBytes": "32"
      },
      "t_struct(ProductData)86_storage": {
        "encoding": "inplace",
        "label": "struct CommerceContract.ProductData",
        "members": [
          {
            "astId": 63,
            "contract": "contracts/CommerceContract.sol:CommerceContract",
            "label": "title",
            "offset": 0,
            "slot": "0",
            "type": "t_string_storage"
          },
          {
            "astId": 65,
            "contract": "contracts/CommerceContract.sol:CommerceContract",
            "label": "description",
            "offset": 0,
            "slot": "1",
            "type": "t_string_storage"
          },
          {
            "astId": 67,
            "contract": "contracts/CommerceContract.sol:CommerceContract",
            "label": "photo",
            "offset": 0,
            "slot": "2",
            "type": "t_string_storage"
          },
          {
            "astId": 69,
            "contract": "contracts/CommerceContract.sol:CommerceContract",
            "label": "location",
            "offset": 0,
            "slot": "3",
            "type": "t_string_storage"
          },
          {
            "astId": 71,
            "contract": "contracts/CommerceContract.sol:CommerceContract",
            "label": "shippingMethod",
            "offset": 0,
            "slot": "4",
            "type": "t_string_storage"
          },
          {
            "astId": 73,
            "contract": "contracts/CommerceContract.sol:CommerceContract",
            "label": "upcharges",
            "offset": 0,
            "slot": "5",
            "type": "t_string_storage"
          },
          {
            "astId": 75,
            "contract": "contracts/CommerceContract.sol:CommerceContract",
            "label": "category",
            "offset": 0,
            "slot": "6",
            "type": "t_string_storage"
          },
          {
            "astId": 77,
            "contract": "contracts/CommerceContract.sol:CommerceContract",
            "label": "price",
            "offset": 0,
            "slot": "7",
            "type": "t_uint32"
          },
          {
            "astId": 79,
            "contract": "contracts/CommerceContract.sol:CommerceContract",
            "label": "timeValidity",
            "offset": 4,
            "slot": "7",
            "type": "t_uint32"
          },
          {
            "astId": 81,
            "contract": "contracts/CommerceContract.sol:CommerceContract",
            "label": "quantity",
            "offset": 8,
            "slot": "7",
            "type": "t_uint32"
          },
          {
            "astId": 83,
            "contract": "contracts/CommerceContract.sol:CommerceContract",
            "label": "creatorWallet",
            "offset": 12,
            "slot": "7",
            "type": "t_address_payable"
          },
          {
            "astId": 85,
            "contract": "contracts/CommerceContract.sol:CommerceContract",
            "label": "isDelivered",
            "offset": 0,
            "slot": "8",
            "type": "t_bool"
          }
        ],
        "numberOfBytes": "288"
      },
      "t_uint32": {
        "encoding": "inplace",
        "label": "uint32",
        "numberOfBytes": "4"
      }
    }
  }
}