{
  "address": "0x8D3f118F25bA8b8F34dB3529A5D7498bE18c7A62",
  "abi": [
    {
      "inputs": [
        {
          "internalType": "string",
          "name": "_title",
          "type": "string"
        },
        {
          "internalType": "string",
          "name": "_description",
          "type": "string"
        },
        {
          "internalType": "string",
          "name": "_photoURL",
          "type": "string"
        },
        {
          "internalType": "string",
          "name": "_originsLocation",
          "type": "string"
        },
        {
          "internalType": "string",
          "name": "_shippingMethod",
          "type": "string"
        },
        {
          "internalType": "string",
          "name": "_upcharges",
          "type": "string"
        },
        {
          "internalType": "string",
          "name": "_sellerName",
          "type": "string"
        },
        {
          "internalType": "uint256",
          "name": "_quantity",
          "type": "uint256"
        },
        {
          "internalType": "uint256",
          "name": "_validityTime",
          "type": "uint256"
        },
        {
          "internalType": "uint256",
          "name": "_productPrice",
          "type": "uint256"
        }
      ],
      "stateMutability": "nonpayable",
      "type": "constructor"
    },
    {
      "anonymous": false,
      "inputs": [
        {
          "indexed": false,
          "internalType": "address",
          "name": "buyer",
          "type": "address"
        },
        {
          "components": [
            {
              "internalType": "address",
              "name": "buyer",
              "type": "address"
            },
            {
              "internalType": "string",
              "name": "buyerName",
              "type": "string"
            },
            {
              "internalType": "string",
              "name": "deliveryLocation",
              "type": "string"
            },
            {
              "internalType": "string",
              "name": "shippingMethod",
              "type": "string"
            },
            {
              "internalType": "uint256",
              "name": "quantity",
              "type": "uint256"
            },
            {
              "internalType": "string",
              "name": "customInstructions",
              "type": "string"
            },
            {
              "internalType": "string",
              "name": "purchasedUpcharges",
              "type": "string"
            },
            {
              "internalType": "uint256",
              "name": "totalPrice",
              "type": "uint256"
            },
            {
              "internalType": "bool",
              "name": "isCompleted",
              "type": "bool"
            },
            {
              "internalType": "string",
              "name": "receiptImageURL",
              "type": "string"
            }
          ],
          "indexed": false,
          "internalType": "struct CommerceContract.Order",
          "name": "order",
          "type": "tuple"
        }
      ],
      "name": "OrderCompleted",
      "type": "event"
    },
    {
      "anonymous": false,
      "inputs": [
        {
          "indexed": false,
          "internalType": "address",
          "name": "buyer",
          "type": "address"
        },
        {
          "components": [
            {
              "internalType": "address",
              "name": "buyer",
              "type": "address"
            },
            {
              "internalType": "string",
              "name": "buyerName",
              "type": "string"
            },
            {
              "internalType": "string",
              "name": "deliveryLocation",
              "type": "string"
            },
            {
              "internalType": "string",
              "name": "shippingMethod",
              "type": "string"
            },
            {
              "internalType": "uint256",
              "name": "quantity",
              "type": "uint256"
            },
            {
              "internalType": "string",
              "name": "customInstructions",
              "type": "string"
            },
            {
              "internalType": "string",
              "name": "purchasedUpcharges",
              "type": "string"
            },
            {
              "internalType": "uint256",
              "name": "totalPrice",
              "type": "uint256"
            },
            {
              "internalType": "bool",
              "name": "isCompleted",
              "type": "bool"
            },
            {
              "internalType": "string",
              "name": "receiptImageURL",
              "type": "string"
            }
          ],
          "indexed": false,
          "internalType": "struct CommerceContract.Order",
          "name": "order",
          "type": "tuple"
        }
      ],
      "name": "OrderPlaced",
      "type": "event"
    },
    {
      "anonymous": false,
      "inputs": [
        {
          "indexed": false,
          "internalType": "address",
          "name": "seller",
          "type": "address"
        },
        {
          "components": [
            {
              "internalType": "string",
              "name": "title",
              "type": "string"
            },
            {
              "internalType": "string",
              "name": "description",
              "type": "string"
            },
            {
              "internalType": "string",
              "name": "photoURL",
              "type": "string"
            },
            {
              "internalType": "string",
              "name": "originsLocation",
              "type": "string"
            },
            {
              "internalType": "string",
              "name": "shippingMethod",
              "type": "string"
            },
            {
              "internalType": "string",
              "name": "upcharges",
              "type": "string"
            },
            {
              "internalType": "string",
              "name": "sellerName",
              "type": "string"
            },
            {
              "internalType": "uint256",
              "name": "quantity",
              "type": "uint256"
            },
            {
              "internalType": "uint256",
              "name": "validityTime",
              "type": "uint256"
            },
            {
              "internalType": "bool",
              "name": "isAuthentic",
              "type": "bool"
            }
          ],
          "indexed": false,
          "internalType": "struct CommerceContract.Product",
          "name": "product",
          "type": "tuple"
        }
      ],
      "name": "ProductListed",
      "type": "event"
    },
    {
      "inputs": [
        {
          "internalType": "uint256",
          "name": "",
          "type": "uint256"
        }
      ],
      "name": "buyers",
      "outputs": [
        {
          "internalType": "address",
          "name": "",
          "type": "address"
        }
      ],
      "stateMutability": "view",
      "type": "function"
    },
    {
      "inputs": [
        {
          "internalType": "address",
          "name": "_buyer",
          "type": "address"
        },
        {
          "internalType": "string",
          "name": "_receiptImageURL",
          "type": "string"
        }
      ],
      "name": "completeOrder",
      "outputs": [],
      "stateMutability": "nonpayable",
      "type": "function"
    },
    {
      "inputs": [
        {
          "internalType": "address",
          "name": "_buyer",
          "type": "address"
        }
      ],
      "name": "getOrder",
      "outputs": [
        {
          "components": [
            {
              "internalType": "address",
              "name": "buyer",
              "type": "address"
            },
            {
              "internalType": "string",
              "name": "buyerName",
              "type": "string"
            },
            {
              "internalType": "string",
              "name": "deliveryLocation",
              "type": "string"
            },
            {
              "internalType": "string",
              "name": "shippingMethod",
              "type": "string"
            },
            {
              "internalType": "uint256",
              "name": "quantity",
              "type": "uint256"
            },
            {
              "internalType": "string",
              "name": "customInstructions",
              "type": "string"
            },
            {
              "internalType": "string",
              "name": "purchasedUpcharges",
              "type": "string"
            },
            {
              "internalType": "uint256",
              "name": "totalPrice",
              "type": "uint256"
            },
            {
              "internalType": "bool",
              "name": "isCompleted",
              "type": "bool"
            },
            {
              "internalType": "string",
              "name": "receiptImageURL",
              "type": "string"
            }
          ],
          "internalType": "struct CommerceContract.Order",
          "name": "",
          "type": "tuple"
        }
      ],
      "stateMutability": "view",
      "type": "function"
    },
    {
      "inputs": [
        {
          "internalType": "address",
          "name": "",
          "type": "address"
        }
      ],
      "name": "orders",
      "outputs": [
        {
          "internalType": "address",
          "name": "buyer",
          "type": "address"
        },
        {
          "internalType": "string",
          "name": "buyerName",
          "type": "string"
        },
        {
          "internalType": "string",
          "name": "deliveryLocation",
          "type": "string"
        },
        {
          "internalType": "string",
          "name": "shippingMethod",
          "type": "string"
        },
        {
          "internalType": "uint256",
          "name": "quantity",
          "type": "uint256"
        },
        {
          "internalType": "string",
          "name": "customInstructions",
          "type": "string"
        },
        {
          "internalType": "string",
          "name": "purchasedUpcharges",
          "type": "string"
        },
        {
          "internalType": "uint256",
          "name": "totalPrice",
          "type": "uint256"
        },
        {
          "internalType": "bool",
          "name": "isCompleted",
          "type": "bool"
        },
        {
          "internalType": "string",
          "name": "receiptImageURL",
          "type": "string"
        }
      ],
      "stateMutability": "view",
      "type": "function"
    },
    {
      "inputs": [
        {
          "internalType": "string",
          "name": "_buyerName",
          "type": "string"
        },
        {
          "internalType": "string",
          "name": "_deliveryLocation",
          "type": "string"
        },
        {
          "internalType": "string",
          "name": "_shippingMethod",
          "type": "string"
        },
        {
          "internalType": "uint256",
          "name": "_quantity",
          "type": "uint256"
        },
        {
          "internalType": "string",
          "name": "_customInstructions",
          "type": "string"
        },
        {
          "internalType": "string",
          "name": "_purchasedUpcharges",
          "type": "string"
        }
      ],
      "name": "placeOrder",
      "outputs": [],
      "stateMutability": "payable",
      "type": "function"
    },
    {
      "inputs": [],
      "name": "product",
      "outputs": [
        {
          "internalType": "string",
          "name": "title",
          "type": "string"
        },
        {
          "internalType": "string",
          "name": "description",
          "type": "string"
        },
        {
          "internalType": "string",
          "name": "photoURL",
          "type": "string"
        },
        {
          "internalType": "string",
          "name": "originsLocation",
          "type": "string"
        },
        {
          "internalType": "string",
          "name": "shippingMethod",
          "type": "string"
        },
        {
          "internalType": "string",
          "name": "upcharges",
          "type": "string"
        },
        {
          "internalType": "string",
          "name": "sellerName",
          "type": "string"
        },
        {
          "internalType": "uint256",
          "name": "quantity",
          "type": "uint256"
        },
        {
          "internalType": "uint256",
          "name": "validityTime",
          "type": "uint256"
        },
        {
          "internalType": "bool",
          "name": "isAuthentic",
          "type": "bool"
        }
      ],
      "stateMutability": "view",
      "type": "function"
    },
    {
      "inputs": [],
      "name": "productPrice",
      "outputs": [
        {
          "internalType": "uint256",
          "name": "",
          "type": "uint256"
        }
      ],
      "stateMutability": "view",
      "type": "function"
    },
    {
      "inputs": [],
      "name": "seller",
      "outputs": [
        {
          "internalType": "address",
          "name": "",
          "type": "address"
        }
      ],
      "stateMutability": "view",
      "type": "function"
    },
    {
      "inputs": [],
      "name": "totalOrders",
      "outputs": [
        {
          "internalType": "uint256",
          "name": "",
          "type": "uint256"
        }
      ],
      "stateMutability": "view",
      "type": "function"
    },
    {
      "inputs": [],
      "name": "withdraw",
      "outputs": [],
      "stateMutability": "nonpayable",
      "type": "function"
    }
  ],
  "transactionHash": "0x3f47907e88ed0cbdd98af804f17261143ce89cecf22440de8178fdbaa8c5a352",
  "args": [
    "Sample Plant",
    "A fefeafea and rare plant",
    "https://example.com/photo.jpg",
    "Tropical Rainforest",
    "Air Freight",
    "None",
    "John Doe",
    10,
    30,
    1000000000
  ],
  "numDeployments": 5,
  "solcInputHash": "90dede3222451249a4a31a689bbdcb64",
  "bytecode": "0x608060405234801561001057600080fd5b506040516122d83803806122d883398101604081905261002f91610260565b600a80546001600160a01b0319163317905560408051610140810182528b8152602081018b9052908101899052606081018890526080810187905260a0810186905260c0810185905260e081018490526101008101839052600061012082018190528061009c8d82610456565b50602082015160018201906100b19082610456565b50604082015160028201906100c69082610456565b50606082015160038201906100db9082610456565b50608082015160048201906100f09082610456565b5060a082015160058201906101059082610456565b5060c0820151600682019061011a9082610456565b5060e082015160078201556101008201516008820155610120909101516009909101805460ff1916911515919091179055600e819055600a546040517f6066915a7d1edadb403bd27d8ea183ee708dfbf8236eb978496a0224e14c2df191610190916001600160a01b0390911690600090610597565b60405180910390a15050505050505050505061069c565b634e487b7160e01b600052604160045260246000fd5b600082601f8301126101ce57600080fd5b81516001600160401b038111156101e7576101e76101a7565b604051601f8201601f19908116603f011681016001600160401b0381118282101715610215576102156101a7565b60405281815283820160200185101561022d57600080fd5b60005b8281101561024c57602081860181015183830182015201610230565b506000918101602001919091529392505050565b6000806000806000806000806000806101408b8d03121561028057600080fd5b8a516001600160401b0381111561029657600080fd5b6102a28d828e016101bd565b60208d0151909b5090506001600160401b038111156102c057600080fd5b6102cc8d828e016101bd565b60408d0151909a5090506001600160401b038111156102ea57600080fd5b6102f68d828e016101bd565b60608d015190995090506001600160401b0381111561031457600080fd5b6103208d828e016101bd565b60808d015190985090506001600160401b0381111561033e57600080fd5b61034a8d828e016101bd565b60a08d015190975090506001600160401b0381111561036857600080fd5b6103748d828e016101bd565b60c08d015190965090506001600160401b0381111561039257600080fd5b61039e8d828e016101bd565b60e08d01516101008e0151610120909e01519c9f9b9e50999c989b979a96999098909790969095509350505050565b600181811c908216806103e157607f821691505b60208210810361040157634e487b7160e01b600052602260045260246000fd5b50919050565b601f82111561045157806000526020600020601f840160051c8101602085101561042e5750805b601f840160051c820191505b8181101561044e576000815560010161043a565b50505b505050565b81516001600160401b0381111561046f5761046f6101a7565b6104838161047d84546103cd565b84610407565b6020601f8211600181146104b7576000831561049f5750848201515b600019600385901b1c1916600184901b17845561044e565b600084815260208120601f198516915b828110156104e757878501518255602094850194600190920191016104c7565b50848210156105055786840151600019600387901b60f8161c191681555b50505050600190811b01905550565b60008154610521816103cd565b80855260018216801561053b57600181146105575761058e565b60ff1983166020870152602082151560051b870101935061058e565b84600052602060002060005b838110156105855781546020828a010152600182019150602081019050610563565b87016020019450505b50505092915050565b6001600160a01b03831681526040602082018190526101409082015260006105c3610180830184610514565b828103603f190160608401526105dc8160018601610514565b838103603f1901608085015290506105f78160028601610514565b838103603f190160a085015290506106128160038601610514565b838103603f190160c0850152905061062d8160048601610514565b838103603f190160e085015290506106488160058601610514565b838103603f190161010085015290506106648160068601610514565b90506007840154610120840152600884015461014084015261068a600985015460ff1690565b80151561016085015250949350505050565b611c2d806106ab6000396000f3fe6080604052600436106100915760003560e01c80636eba2b13116100595780636eba2b13146101415780639497d3ae1461016e578063bf9ce95214610184578063f2aa8218146101af578063f40e8471146101cf57600080fd5b806308551a53146100965780631d834409146100d357806320467b37146100f75780633ccfd60b146101195780635a8cf8ff1461012e575b600080fd5b3480156100a257600080fd5b50600a546100b6906001600160a01b031681565b6040516001600160a01b0390911681526020015b60405180910390f35b3480156100df57600080fd5b506100e9600d5481565b6040519081526020016100ca565b34801561010357600080fd5b5061011761011236600461146f565b610205565b005b34801561012557600080fd5b50610117610321565b61011761013c3660046114bd565b610498565b34801561014d57600080fd5b5061016161015c3660046115b1565b610791565b6040516100ca9190611619565b34801561017a57600080fd5b506100e9600e5481565b34801561019057600080fd5b50610199610bc0565b6040516100ca9a9998979695949392919061171b565b3480156101bb57600080fd5b506100b66101ca3660046117cd565b610fbd565b3480156101db57600080fd5b506101ef6101ea3660046115b1565b610fe7565b6040516100ca9a999897969594939291906117e6565b600a546001600160a01b031633146102385760405162461bcd60e51b815260040161022f90611894565b60405180910390fd5b6001600160a01b038281166000908152600b6020526040902054166102965760405162461bcd60e51b815260206004820152601460248201527313dc99195c88191bd95cc81b9bdd08195e1a5cdd60621b604482015260640161022f565b6001600160a01b0382166000908152600b6020526040902060088101805460ff191660011790556009016102ca8282611960565b506001600160a01b0382166000908152600b60205260409081902090517f686aa43c80d44e65dc44e1f4cbe0c06ce0c316026c57b42505fc3241933084649161031591859190611aa2565b60405180910390a15050565b600a546001600160a01b0316331461034b5760405162461bcd60e51b815260040161022f90611894565b6000600d54116103905760405162461bcd60e51b815260206004820152601060248201526f139bc81bdc99195c9cc81c1b1858d95960821b604482015260640161022f565b600160005b600c548110156103f657600b6000600c83815481106103b6576103b6611b8e565b60009182526020808320909101546001600160a01b0316835282019290925260400190206008015460ff166103ee57600091506103f6565b600101610395565b508061045b5760405162461bcd60e51b815260206004820152602e60248201527f416c6c206f7264657273206d75737420626520636f6d706c657465642062656660448201526d1bdc99481dda5d1a191c985dd85b60921b606482015260840161022f565b600a546040516001600160a01b03909116904780156108fc02916000818181858888f19350505050158015610494573d6000803e3d6000fd5b5050565b336000908152600b60205260409020546001600160a01b0316156104f55760405162461bcd60e51b815260206004820152601460248201527313dc99195c88185b1c9958591e481c1b1858d95960621b604482015260640161022f565b60008311801561050757506007548311155b6105465760405162461bcd60e51b815260206004820152601060248201526f496e76616c6964207175616e7469747960801b604482015260640161022f565b60006105528483611376565b90508034101561059b5760405162461bcd60e51b8152602060048201526014602482015273125b9cdd59999a58da595b9d081c185e5b595b9d60621b604482015260640161022f565b60408051610140810182523380825260208083018b81528385018b9052606084018a90526080840189905260a0840188905260c0840187905260e084018690526000610100850181905285518084018752818152610120860152928352600b909152929020815181546001600160a01b0319166001600160a01b03909116178155915190919060018201906106309082611960565b50604082015160028201906106459082611960565b506060820151600382019061065a9082611960565b506080820151600482015560a082015160058201906106799082611960565b5060c0820151600682019061068e9082611960565b5060e0820151600782015561010082015160088201805460ff191691151591909117905561012082015160098201906106c79082611960565b5050600c80546001818101835560009283527fdf6966c971051c3d54ec59162606531493a51404a002842f56009d7e5cf4a8c790910180546001600160a01b03191633179055600d80549193509190610721908490611bba565b90915550506007805485919060009061073b908490611bcd565b9091555050336000818152600b60205260409081902090517f18982cd8cf9dd0cce97a507e43636445ba7fd3adc0203b3fb51bef96a8995f0b92610780929091611aa2565b60405180910390a150505050505050565b6107f260405180610140016040528060006001600160a01b0316815260200160608152602001606081526020016060815260200160008152602001606081526020016060815260200160008152602001600015158152602001606081525090565b6001600160a01b038083166000908152600b6020908152604091829020825161014081019093528054909316825260018301805492939291840191610836906118d7565b80601f0160208091040260200160405190810160405280929190818152602001828054610862906118d7565b80156108af5780601f10610884576101008083540402835291602001916108af565b820191906000526020600020905b81548152906001019060200180831161089257829003601f168201915b505050505081526020016002820180546108c8906118d7565b80601f01602080910402602001604051908101604052809291908181526020018280546108f4906118d7565b80156109415780601f1061091657610100808354040283529160200191610941565b820191906000526020600020905b81548152906001019060200180831161092457829003601f168201915b5050505050815260200160038201805461095a906118d7565b80601f0160208091040260200160405190810160405280929190818152602001828054610986906118d7565b80156109d35780601f106109a8576101008083540402835291602001916109d3565b820191906000526020600020905b8154815290600101906020018083116109b657829003601f168201915b50505050508152602001600482015481526020016005820180546109f6906118d7565b80601f0160208091040260200160405190810160405280929190818152602001828054610a22906118d7565b8015610a6f5780601f10610a4457610100808354040283529160200191610a6f565b820191906000526020600020905b815481529060010190602001808311610a5257829003601f168201915b50505050508152602001600682018054610a88906118d7565b80601f0160208091040260200160405190810160405280929190818152602001828054610ab4906118d7565b8015610b015780601f10610ad657610100808354040283529160200191610b01565b820191906000526020600020905b815481529060010190602001808311610ae457829003601f168201915b505050918352505060078201546020820152600882015460ff1615156040820152600982018054606090920191610b37906118d7565b80601f0160208091040260200160405190810160405280929190818152602001828054610b63906118d7565b8015610bb05780601f10610b8557610100808354040283529160200191610bb0565b820191906000526020600020905b815481529060010190602001808311610b9357829003601f168201915b5050505050815250509050919050565b600080548190610bcf906118d7565b80601f0160208091040260200160405190810160405280929190818152602001828054610bfb906118d7565b8015610c485780601f10610c1d57610100808354040283529160200191610c48565b820191906000526020600020905b815481529060010190602001808311610c2b57829003601f168201915b505050505090806001018054610c5d906118d7565b80601f0160208091040260200160405190810160405280929190818152602001828054610c89906118d7565b8015610cd65780601f10610cab57610100808354040283529160200191610cd6565b820191906000526020600020905b815481529060010190602001808311610cb957829003601f168201915b505050505090806002018054610ceb906118d7565b80601f0160208091040260200160405190810160405280929190818152602001828054610d17906118d7565b8015610d645780601f10610d3957610100808354040283529160200191610d64565b820191906000526020600020905b815481529060010190602001808311610d4757829003601f168201915b505050505090806003018054610d79906118d7565b80601f0160208091040260200160405190810160405280929190818152602001828054610da5906118d7565b8015610df25780601f10610dc757610100808354040283529160200191610df2565b820191906000526020600020905b815481529060010190602001808311610dd557829003601f168201915b505050505090806004018054610e07906118d7565b80601f0160208091040260200160405190810160405280929190818152602001828054610e33906118d7565b8015610e805780601f10610e5557610100808354040283529160200191610e80565b820191906000526020600020905b815481529060010190602001808311610e6357829003601f168201915b505050505090806005018054610e95906118d7565b80601f0160208091040260200160405190810160405280929190818152602001828054610ec1906118d7565b8015610f0e5780601f10610ee357610100808354040283529160200191610f0e565b820191906000526020600020905b815481529060010190602001808311610ef157829003601f168201915b505050505090806006018054610f23906118d7565b80601f0160208091040260200160405190810160405280929190818152602001828054610f4f906118d7565b8015610f9c5780601f10610f7157610100808354040283529160200191610f9c565b820191906000526020600020905b815481529060010190602001808311610f7f57829003601f168201915b50505050600783015460088401546009909401549293909290915060ff168a565b600c8181548110610fcd57600080fd5b6000918252602090912001546001600160a01b0316905081565b600b60205260009081526040902080546001820180546001600160a01b039092169291611013906118d7565b80601f016020809104026020016040519081016040528092919081815260200182805461103f906118d7565b801561108c5780601f106110615761010080835404028352916020019161108c565b820191906000526020600020905b81548152906001019060200180831161106f57829003601f168201915b5050505050908060020180546110a1906118d7565b80601f01602080910402602001604051908101604052809291908181526020018280546110cd906118d7565b801561111a5780601f106110ef5761010080835404028352916020019161111a565b820191906000526020600020905b8154815290600101906020018083116110fd57829003601f168201915b50505050509080600301805461112f906118d7565b80601f016020809104026020016040519081016040528092919081815260200182805461115b906118d7565b80156111a85780601f1061117d576101008083540402835291602001916111a8565b820191906000526020600020905b81548152906001019060200180831161118b57829003601f168201915b5050505050908060040154908060050180546111c3906118d7565b80601f01602080910402602001604051908101604052809291908181526020018280546111ef906118d7565b801561123c5780601f106112115761010080835404028352916020019161123c565b820191906000526020600020905b81548152906001019060200180831161121f57829003601f168201915b505050505090806006018054611251906118d7565b80601f016020809104026020016040519081016040528092919081815260200182805461127d906118d7565b80156112ca5780601f1061129f576101008083540402835291602001916112ca565b820191906000526020600020905b8154815290600101906020018083116112ad57829003601f168201915b50505050600783015460088401546009850180549495929460ff9092169350906112f3906118d7565b80601f016020809104026020016040519081016040528092919081815260200182805461131f906118d7565b801561136c5780601f106113415761010080835404028352916020019161136c565b820191906000526020600020905b81548152906001019060200180831161134f57829003601f168201915b505050505090508a565b600080600e54846113879190611be0565b8351909150156113a5576113a2662386f26fc1000082611bba565b90505b90505b92915050565b80356001600160a01b03811681146113c557600080fd5b919050565b634e487b7160e01b600052604160045260246000fd5b600082601f8301126113f157600080fd5b813567ffffffffffffffff81111561140b5761140b6113ca565b604051601f8201601f19908116603f0116810167ffffffffffffffff8111828210171561143a5761143a6113ca565b60405281815283820160200185101561145257600080fd5b816020850160208301376000918101602001919091529392505050565b6000806040838503121561148257600080fd5b61148b836113ae565b9150602083013567ffffffffffffffff8111156114a757600080fd5b6114b3858286016113e0565b9150509250929050565b60008060008060008060c087890312156114d657600080fd5b863567ffffffffffffffff8111156114ed57600080fd5b6114f989828a016113e0565b965050602087013567ffffffffffffffff81111561151657600080fd5b61152289828a016113e0565b955050604087013567ffffffffffffffff81111561153f57600080fd5b61154b89828a016113e0565b94505060608701359250608087013567ffffffffffffffff81111561156f57600080fd5b61157b89828a016113e0565b92505060a087013567ffffffffffffffff81111561159857600080fd5b6115a489828a016113e0565b9150509295509295509295565b6000602082840312156115c357600080fd5b6115cc826113ae565b9392505050565b6000815180845260005b818110156115f9576020818501810151868301820152016115dd565b506000602082860101526020601f19601f83011685010191505092915050565b602081526116336020820183516001600160a01b03169052565b6000602083015161014060408401526116506101608401826115d3565b90506040840151601f1984830301606085015261166d82826115d3565b9150506060840151601f1984830301608085015261168b82826115d3565b915050608084015160a084015260a0840151601f198483030160c08501526116b382826115d3565b91505060c0840151601f198483030160e08501526116d182826115d3565b91505060e08401516101008401526101008401516116f461012085018215159052565b50610120840151838203601f190161014085015261171282826115d3565b95945050505050565b6101408152600061173061014083018d6115d3565b8281036020840152611742818d6115d3565b90508281036040840152611756818c6115d3565b9050828103606084015261176a818b6115d3565b9050828103608084015261177e818a6115d3565b905082810360a084015261179281896115d3565b905082810360c08401526117a681886115d3565b60e08401969096525050610100810192909252151561012090910152979650505050505050565b6000602082840312156117df57600080fd5b5035919050565b6001600160a01b038b1681526101406020820181905260009061180b9083018c6115d3565b828103604084015261181d818c6115d3565b90508281036060840152611831818b6115d3565b905088608084015282810360a084015261184b81896115d3565b905082810360c084015261185f81886115d3565b90508560e084015284151561010084015282810361012084015261188381856115d3565b9d9c50505050505050505050505050565b60208082526023908201527f4f6e6c792073656c6c65722063616e20706572666f726d20746869732061637460408201526234b7b760e91b606082015260800190565b600181811c908216806118eb57607f821691505b60208210810361190b57634e487b7160e01b600052602260045260246000fd5b50919050565b601f82111561195b57806000526020600020601f840160051c810160208510156119385750805b601f840160051c820191505b818110156119585760008155600101611944565b50505b505050565b815167ffffffffffffffff81111561197a5761197a6113ca565b61198e8161198884546118d7565b84611911565b6020601f8211600181146119c257600083156119aa5750848201515b600019600385901b1c1916600184901b178455611958565b600084815260208120601f198516915b828110156119f257878501518255602094850194600190920191016119d2565b5084821015611a105786840151600019600387901b60f8161c191681555b50505050600190811b01905550565b60008154611a2c816118d7565b808552600182168015611a465760018114611a6257611a99565b60ff1983166020870152602082151560051b8701019350611a99565b84600052602060002060005b83811015611a905781546020828a010152600182019150602081019050611a6e565b87016020019450505b50505092915050565b6001600160a01b03838116825260406020830181905283549091169082015261014060608201526000611adc610180830160018501611a1f565b828103603f19016080840152611af58160028601611a1f565b838103603f190160a08501529050611b108160038601611a1f565b600485015460c0850152838103603f190160e08501529050611b358160058601611a1f565b838103603f19016101008501529050611b518160068601611a1f565b90506007840154610120840152611b6c600885015460ff1690565b1515610140840152603f19838203016101608401526117128160098601611a1f565b634e487b7160e01b600052603260045260246000fd5b634e487b7160e01b600052601160045260246000fd5b808201808211156113a8576113a8611ba4565b818103818111156113a8576113a8611ba4565b80820281158282048414176113a8576113a8611ba456fea2646970667358221220f08b8b359f9612d906feb768b76a37d1476ece03cbdbe0e9c0e831e79829725964736f6c634300081a0033",
  "devdoc": {
    "kind": "dev",
    "methods": {},
    "version": 1
  },
  "userdoc": {
    "kind": "user",
    "methods": {},
    "version": 1
  },
  "storageLayout": {
    "storage": [
      {
        "astId": 46,
        "contract": "contracts/Commerce.sol:CommerceContract",
        "label": "product",
        "offset": 0,
        "slot": "0",
        "type": "t_struct(Product)22_storage"
      },
      {
        "astId": 48,
        "contract": "contracts/Commerce.sol:CommerceContract",
        "label": "seller",
        "offset": 0,
        "slot": "10",
        "type": "t_address"
      },
      {
        "astId": 53,
        "contract": "contracts/Commerce.sol:CommerceContract",
        "label": "orders",
        "offset": 0,
        "slot": "11",
        "type": "t_mapping(t_address,t_struct(Order)43_storage)"
      },
      {
        "astId": 56,
        "contract": "contracts/Commerce.sol:CommerceContract",
        "label": "buyers",
        "offset": 0,
        "slot": "12",
        "type": "t_array(t_address)dyn_storage"
      },
      {
        "astId": 58,
        "contract": "contracts/Commerce.sol:CommerceContract",
        "label": "totalOrders",
        "offset": 0,
        "slot": "13",
        "type": "t_uint256"
      },
      {
        "astId": 60,
        "contract": "contracts/Commerce.sol:CommerceContract",
        "label": "productPrice",
        "offset": 0,
        "slot": "14",
        "type": "t_uint256"
      }
    ],
    "types": {
      "t_address": {
        "encoding": "inplace",
        "label": "address",
        "numberOfBytes": "20"
      },
      "t_array(t_address)dyn_storage": {
        "base": "t_address",
        "encoding": "dynamic_array",
        "label": "address[]",
        "numberOfBytes": "32"
      },
      "t_bool": {
        "encoding": "inplace",
        "label": "bool",
        "numberOfBytes": "1"
      },
      "t_mapping(t_address,t_struct(Order)43_storage)": {
        "encoding": "mapping",
        "key": "t_address",
        "label": "mapping(address => struct CommerceContract.Order)",
        "numberOfBytes": "32",
        "value": "t_struct(Order)43_storage"
      },
      "t_string_storage": {
        "encoding": "bytes",
        "label": "string",
        "numberOfBytes": "32"
      },
      "t_struct(Order)43_storage": {
        "encoding": "inplace",
        "label": "struct CommerceContract.Order",
        "members": [
          {
            "astId": 24,
            "contract": "contracts/Commerce.sol:CommerceContract",
            "label": "buyer",
            "offset": 0,
            "slot": "0",
            "type": "t_address"
          },
          {
            "astId": 26,
            "contract": "contracts/Commerce.sol:CommerceContract",
            "label": "buyerName",
            "offset": 0,
            "slot": "1",
            "type": "t_string_storage"
          },
          {
            "astId": 28,
            "contract": "contracts/Commerce.sol:CommerceContract",
            "label": "deliveryLocation",
            "offset": 0,
            "slot": "2",
            "type": "t_string_storage"
          },
          {
            "astId": 30,
            "contract": "contracts/Commerce.sol:CommerceContract",
            "label": "shippingMethod",
            "offset": 0,
            "slot": "3",
            "type": "t_string_storage"
          },
          {
            "astId": 32,
            "contract": "contracts/Commerce.sol:CommerceContract",
            "label": "quantity",
            "offset": 0,
            "slot": "4",
            "type": "t_uint256"
          },
          {
            "astId": 34,
            "contract": "contracts/Commerce.sol:CommerceContract",
            "label": "customInstructions",
            "offset": 0,
            "slot": "5",
            "type": "t_string_storage"
          },
          {
            "astId": 36,
            "contract": "contracts/Commerce.sol:CommerceContract",
            "label": "purchasedUpcharges",
            "offset": 0,
            "slot": "6",
            "type": "t_string_storage"
          },
          {
            "astId": 38,
            "contract": "contracts/Commerce.sol:CommerceContract",
            "label": "totalPrice",
            "offset": 0,
            "slot": "7",
            "type": "t_uint256"
          },
          {
            "astId": 40,
            "contract": "contracts/Commerce.sol:CommerceContract",
            "label": "isCompleted",
            "offset": 0,
            "slot": "8",
            "type": "t_bool"
          },
          {
            "astId": 42,
            "contract": "contracts/Commerce.sol:CommerceContract",
            "label": "receiptImageURL",
            "offset": 0,
            "slot": "9",
            "type": "t_string_storage"
          }
        ],
        "numberOfBytes": "320"
      },
      "t_struct(Product)22_storage": {
        "encoding": "inplace",
        "label": "struct CommerceContract.Product",
        "members": [
          {
            "astId": 3,
            "contract": "contracts/Commerce.sol:CommerceContract",
            "label": "title",
            "offset": 0,
            "slot": "0",
            "type": "t_string_storage"
          },
          {
            "astId": 5,
            "contract": "contracts/Commerce.sol:CommerceContract",
            "label": "description",
            "offset": 0,
            "slot": "1",
            "type": "t_string_storage"
          },
          {
            "astId": 7,
            "contract": "contracts/Commerce.sol:CommerceContract",
            "label": "photoURL",
            "offset": 0,
            "slot": "2",
            "type": "t_string_storage"
          },
          {
            "astId": 9,
            "contract": "contracts/Commerce.sol:CommerceContract",
            "label": "originsLocation",
            "offset": 0,
            "slot": "3",
            "type": "t_string_storage"
          },
          {
            "astId": 11,
            "contract": "contracts/Commerce.sol:CommerceContract",
            "label": "shippingMethod",
            "offset": 0,
            "slot": "4",
            "type": "t_string_storage"
          },
          {
            "astId": 13,
            "contract": "contracts/Commerce.sol:CommerceContract",
            "label": "upcharges",
            "offset": 0,
            "slot": "5",
            "type": "t_string_storage"
          },
          {
            "astId": 15,
            "contract": "contracts/Commerce.sol:CommerceContract",
            "label": "sellerName",
            "offset": 0,
            "slot": "6",
            "type": "t_string_storage"
          },
          {
            "astId": 17,
            "contract": "contracts/Commerce.sol:CommerceContract",
            "label": "quantity",
            "offset": 0,
            "slot": "7",
            "type": "t_uint256"
          },
          {
            "astId": 19,
            "contract": "contracts/Commerce.sol:CommerceContract",
            "label": "validityTime",
            "offset": 0,
            "slot": "8",
            "type": "t_uint256"
          },
          {
            "astId": 21,
            "contract": "contracts/Commerce.sol:CommerceContract",
            "label": "isAuthentic",
            "offset": 0,
            "slot": "9",
            "type": "t_bool"
          }
        ],
        "numberOfBytes": "320"
      },
      "t_uint256": {
        "encoding": "inplace",
        "label": "uint256",
        "numberOfBytes": "32"
      }
    }
  }
}